{
  "_format": "hh-sol-artifact-1",
  "contractName": "House",
  "sourceName": "contracts/House.sol",
  "abi": [
    {
      "inputs": [],
      "stateMutability": "nonpayable",
      "type": "constructor"
    },
    {
      "inputs": [],
      "name": "AddressIsZero",
      "type": "error"
    },
    {
      "inputs": [],
      "name": "InsufficientBalance",
      "type": "error"
    },
    {
      "inputs": [],
      "name": "InvalidAmount",
      "type": "error"
    },
    {
      "inputs": [],
      "name": "UnauthorizedAddress",
      "type": "error"
    },
    {
      "anonymous": false,
      "inputs": [
        {
          "indexed": true,
          "internalType": "uint256",
          "name": "amount",
          "type": "uint256"
        }
      ],
      "name": "BetReceived",
      "type": "event"
    },
    {
      "anonymous": false,
      "inputs": [
        {
          "indexed": true,
          "internalType": "address",
          "name": "recipient",
          "type": "address"
        },
        {
          "indexed": true,
          "internalType": "uint256",
          "name": "amount",
          "type": "uint256"
        }
      ],
      "name": "BetSent",
      "type": "event"
    },
    {
      "anonymous": false,
      "inputs": [
        {
          "indexed": true,
          "internalType": "address",
          "name": "previousOwner",
          "type": "address"
        },
        {
          "indexed": true,
          "internalType": "address",
          "name": "newOwner",
          "type": "address"
        }
      ],
      "name": "OwnershipTransferred",
      "type": "event"
    },
    {
      "inputs": [],
      "name": "approveBettingContract",
      "outputs": [
        {
          "internalType": "bool",
          "name": "",
          "type": "bool"
        }
      ],
      "stateMutability": "nonpayable",
      "type": "function"
    },
    {
      "inputs": [],
      "name": "bettingContract",
      "outputs": [
        {
          "internalType": "address",
          "name": "",
          "type": "address"
        }
      ],
      "stateMutability": "view",
      "type": "function"
    },
    {
      "inputs": [],
      "name": "ffc",
      "outputs": [
        {
          "internalType": "contract FFC",
          "name": "",
          "type": "address"
        }
      ],
      "stateMutability": "view",
      "type": "function"
    },
    {
      "inputs": [],
      "name": "owner",
      "outputs": [
        {
          "internalType": "address",
          "name": "",
          "type": "address"
        }
      ],
      "stateMutability": "view",
      "type": "function"
    },
    {
      "inputs": [
        {
          "internalType": "uint256",
          "name": "amount",
          "type": "uint256"
        }
      ],
      "name": "receiveBet",
      "outputs": [
        {
          "internalType": "bool",
          "name": "",
          "type": "bool"
        }
      ],
      "stateMutability": "nonpayable",
      "type": "function"
    },
    {
      "inputs": [],
      "name": "renounceOwnership",
      "outputs": [],
      "stateMutability": "nonpayable",
      "type": "function"
    },
    {
      "inputs": [
        {
          "internalType": "address",
          "name": "recipient",
          "type": "address"
        },
        {
          "internalType": "uint256",
          "name": "amount",
          "type": "uint256"
        }
      ],
      "name": "sendBet",
      "outputs": [
        {
          "internalType": "bool",
          "name": "",
          "type": "bool"
        }
      ],
      "stateMutability": "nonpayable",
      "type": "function"
    },
    {
      "inputs": [
        {
          "internalType": "address",
          "name": "_bettingContract",
          "type": "address"
        }
      ],
      "name": "setBettingContract",
      "outputs": [
        {
          "internalType": "bool",
          "name": "",
          "type": "bool"
        }
      ],
      "stateMutability": "nonpayable",
      "type": "function"
    },
    {
      "inputs": [
        {
          "internalType": "address",
          "name": "_ffcAddress",
          "type": "address"
        }
      ],
      "name": "setFlyFlutterCoin",
      "outputs": [
        {
          "internalType": "bool",
          "name": "",
          "type": "bool"
        }
      ],
      "stateMutability": "nonpayable",
      "type": "function"
    },
    {
      "inputs": [],
      "name": "totalReceived",
      "outputs": [
        {
          "internalType": "uint256",
          "name": "",
          "type": "uint256"
        }
      ],
      "stateMutability": "view",
      "type": "function"
    },
    {
      "inputs": [],
      "name": "totalSent",
      "outputs": [
        {
          "internalType": "uint256",
          "name": "",
          "type": "uint256"
        }
      ],
      "stateMutability": "view",
      "type": "function"
    },
    {
      "inputs": [
        {
          "internalType": "address",
          "name": "newOwner",
          "type": "address"
        }
      ],
      "name": "transferOwnership",
      "outputs": [],
      "stateMutability": "nonpayable",
      "type": "function"
    }
  ],
  "bytecode": "0x608060405234801561001057600080fd5b5061002d61002261004260201b60201c565b61004a60201b60201c565b6000600381905550600060048190555061010e565b600033905090565b60008060009054906101000a900473ffffffffffffffffffffffffffffffffffffffff169050816000806101000a81548173ffffffffffffffffffffffffffffffffffffffff021916908373ffffffffffffffffffffffffffffffffffffffff1602179055508173ffffffffffffffffffffffffffffffffffffffff168173ffffffffffffffffffffffffffffffffffffffff167f8be0079c531659141344cd1fd0a4f28419497f9722a3daafe3b4186f6b6457e060405160405180910390a35050565b610ef28061011d6000396000f3fe608060405234801561001057600080fd5b50600436106100b45760003560e01c80638da5cb5b116100715780638da5cb5b1461017d57806396d0c18a1461019b578063a3c2c462146101cb578063c2252daa146101e9578063e69c2d6114610219578063f2fde38b14610237576100b4565b806321cb4831146100b95780632209e991146100d757806330fce48b1461010757806346f990631461013757806349e455f914610155578063715018a614610173575b600080fd5b6100c1610253565b6040516100ce9190610a55565b60405180910390f35b6100f160048036038101906100ec9190610ad7565b610279565b6040516100fe9190610b32565b60405180910390f35b610121600480360381019061011c9190610b4d565b610478565b60405161012e9190610b32565b60405180910390f35b61013f610534565b60405161014c9190610b89565b60405180910390f35b61015d61053a565b60405161016a9190610b32565b60405180910390f35b61017b610610565b005b610185610624565b6040516101929190610a55565b60405180910390f35b6101b560048036038101906101b09190610b4d565b61064d565b6040516101c29190610b32565b60405180910390f35b6101d3610709565b6040516101e09190610b89565b60405180910390f35b61020360048036038101906101fe9190610ba4565b61070f565b6040516102109190610b32565b60405180910390f35b610221610821565b60405161022e9190610c30565b60405180910390f35b610251600480360381019061024c9190610b4d565b610847565b005b600260009054906101000a900473ffffffffffffffffffffffffffffffffffffffff1681565b6000600260009054906101000a900473ffffffffffffffffffffffffffffffffffffffff1673ffffffffffffffffffffffffffffffffffffffff163373ffffffffffffffffffffffffffffffffffffffff1614610302576040517fb0ab297600000000000000000000000000000000000000000000000000000000815260040160405180910390fd5b6000820361033c576040517f2c5211c600000000000000000000000000000000000000000000000000000000815260040160405180910390fd5b600160009054906101000a900473ffffffffffffffffffffffffffffffffffffffff1673ffffffffffffffffffffffffffffffffffffffff166370a08231306040518263ffffffff1660e01b81526004016103979190610a55565b602060405180830381865afa1580156103b4573d6000803e3d6000fd5b505050506040513d601f19601f820116820180604052508101906103d89190610c60565b821115610411576040517ff4d678b800000000000000000000000000000000000000000000000000000000815260040160405180910390fd5b81600460008282546104239190610cbc565b92505081905550818373ffffffffffffffffffffffffffffffffffffffff167f827b67bfa3659eece896a0f8de203e1363076768330ed10c8e35c5bec25f969260405160405180910390a36001905092915050565b60006104826108ca565b81600073ffffffffffffffffffffffffffffffffffffffff168173ffffffffffffffffffffffffffffffffffffffff16036104e9576040517f867915ab00000000000000000000000000000000000000000000000000000000815260040160405180910390fd5b82600260006101000a81548173ffffffffffffffffffffffffffffffffffffffff021916908373ffffffffffffffffffffffffffffffffffffffff1602179055506001915050919050565b60045481565b60006105446108ca565b600160009054906101000a900473ffffffffffffffffffffffffffffffffffffffff1673ffffffffffffffffffffffffffffffffffffffff1663095ea7b3600260009054906101000a900473ffffffffffffffffffffffffffffffffffffffff166127106040518363ffffffff1660e01b81526004016105c5929190610d2b565b6020604051808303816000875af11580156105e4573d6000803e3d6000fd5b505050506040513d601f19601f820116820180604052508101906106089190610d80565b506001905090565b6106186108ca565b6106226000610948565b565b60008060009054906101000a900473ffffffffffffffffffffffffffffffffffffffff16905090565b60006106576108ca565b81600073ffffffffffffffffffffffffffffffffffffffff168173ffffffffffffffffffffffffffffffffffffffff16036106be576040517f867915ab00000000000000000000000000000000000000000000000000000000815260040160405180910390fd5b82600160006101000a81548173ffffffffffffffffffffffffffffffffffffffff021916908373ffffffffffffffffffffffffffffffffffffffff1602179055506001915050919050565b60035481565b6000600260009054906101000a900473ffffffffffffffffffffffffffffffffffffffff1673ffffffffffffffffffffffffffffffffffffffff163373ffffffffffffffffffffffffffffffffffffffff1614610798576040517fb0ab297600000000000000000000000000000000000000000000000000000000815260040160405180910390fd5b600082036107d2576040517f2c5211c600000000000000000000000000000000000000000000000000000000815260040160405180910390fd5b81600360008282546107e49190610cbc565b92505081905550817f8a1f3e1fd188913ca10db14d36789a52ea1c918bed66475035e3079cafb0f20360405160405180910390a260019050919050565b600160009054906101000a900473ffffffffffffffffffffffffffffffffffffffff1681565b61084f6108ca565b600073ffffffffffffffffffffffffffffffffffffffff168173ffffffffffffffffffffffffffffffffffffffff16036108be576040517f08c379a00000000000000000000000000000000000000000000000000000000081526004016108b590610e30565b60405180910390fd5b6108c781610948565b50565b6108d2610a0c565b73ffffffffffffffffffffffffffffffffffffffff166108f0610624565b73ffffffffffffffffffffffffffffffffffffffff1614610946576040517f08c379a000000000000000000000000000000000000000000000000000000000815260040161093d90610e9c565b60405180910390fd5b565b60008060009054906101000a900473ffffffffffffffffffffffffffffffffffffffff169050816000806101000a81548173ffffffffffffffffffffffffffffffffffffffff021916908373ffffffffffffffffffffffffffffffffffffffff1602179055508173ffffffffffffffffffffffffffffffffffffffff168173ffffffffffffffffffffffffffffffffffffffff167f8be0079c531659141344cd1fd0a4f28419497f9722a3daafe3b4186f6b6457e060405160405180910390a35050565b600033905090565b600073ffffffffffffffffffffffffffffffffffffffff82169050919050565b6000610a3f82610a14565b9050919050565b610a4f81610a34565b82525050565b6000602082019050610a6a6000830184610a46565b92915050565b600080fd5b610a7e81610a34565b8114610a8957600080fd5b50565b600081359050610a9b81610a75565b92915050565b6000819050919050565b610ab481610aa1565b8114610abf57600080fd5b50565b600081359050610ad181610aab565b92915050565b60008060408385031215610aee57610aed610a70565b5b6000610afc85828601610a8c565b9250506020610b0d85828601610ac2565b9150509250929050565b60008115159050919050565b610b2c81610b17565b82525050565b6000602082019050610b476000830184610b23565b92915050565b600060208284031215610b6357610b62610a70565b5b6000610b7184828501610a8c565b91505092915050565b610b8381610aa1565b82525050565b6000602082019050610b9e6000830184610b7a565b92915050565b600060208284031215610bba57610bb9610a70565b5b6000610bc884828501610ac2565b91505092915050565b6000819050919050565b6000610bf6610bf1610bec84610a14565b610bd1565b610a14565b9050919050565b6000610c0882610bdb565b9050919050565b6000610c1a82610bfd565b9050919050565b610c2a81610c0f565b82525050565b6000602082019050610c456000830184610c21565b92915050565b600081519050610c5a81610aab565b92915050565b600060208284031215610c7657610c75610a70565b5b6000610c8484828501610c4b565b91505092915050565b7f4e487b7100000000000000000000000000000000000000000000000000000000600052601160045260246000fd5b6000610cc782610aa1565b9150610cd283610aa1565b9250828201905080821115610cea57610ce9610c8d565b5b92915050565b6000819050919050565b6000610d15610d10610d0b84610cf0565b610bd1565b610aa1565b9050919050565b610d2581610cfa565b82525050565b6000604082019050610d406000830185610a46565b610d4d6020830184610d1c565b9392505050565b610d5d81610b17565b8114610d6857600080fd5b50565b600081519050610d7a81610d54565b92915050565b600060208284031215610d9657610d95610a70565b5b6000610da484828501610d6b565b91505092915050565b600082825260208201905092915050565b7f4f776e61626c653a206e6577206f776e657220697320746865207a65726f206160008201527f6464726573730000000000000000000000000000000000000000000000000000602082015250565b6000610e1a602683610dad565b9150610e2582610dbe565b604082019050919050565b60006020820190508181036000830152610e4981610e0d565b9050919050565b7f4f776e61626c653a2063616c6c6572206973206e6f7420746865206f776e6572600082015250565b6000610e86602083610dad565b9150610e9182610e50565b602082019050919050565b60006020820190508181036000830152610eb581610e79565b905091905056fea26469706673582212201acde9e6e527b8cb8d886623d44bf348a65dbf987103ba5193c0cfd9a09bc14164736f6c63430008130033",
  "linkReferences": {},
  "deployedLinkReferences": {}
}