{
  "_format": "hh-sol-artifact-1",
  "contractName": "FlyFlutterCoin",
  "sourceName": "contracts/FlyFlutterCoin.sol",
  "abi": [
    {
      "inputs": [
        {
          "internalType": "address",
          "name": "_houseContract",
          "type": "address"
        }
      ],
      "stateMutability": "nonpayable",
      "type": "constructor"
    },
    {
      "inputs": [],
      "name": "AddressIsZero",
      "type": "error"
    },
    {
      "inputs": [],
      "name": "ApproveOnlyTheBettingContract",
      "type": "error"
    },
    {
      "inputs": [],
      "name": "BalanceGreaterThanTen",
      "type": "error"
    },
    {
      "inputs": [],
      "name": "TransferFromOnlyHouseContract",
      "type": "error"
    },
    {
      "inputs": [],
      "name": "TransferOnlyToHouseContract",
      "type": "error"
    },
    {
      "anonymous": false,
      "inputs": [
        {
          "indexed": true,
          "internalType": "address",
          "name": "owner",
          "type": "address"
        },
        {
          "indexed": true,
          "internalType": "address",
          "name": "spender",
          "type": "address"
        },
        {
          "indexed": false,
          "internalType": "uint256",
          "name": "value",
          "type": "uint256"
        }
      ],
      "name": "Approval",
      "type": "event"
    },
    {
      "anonymous": false,
      "inputs": [
        {
          "indexed": true,
          "internalType": "address",
          "name": "previousOwner",
          "type": "address"
        },
        {
          "indexed": true,
          "internalType": "address",
          "name": "newOwner",
          "type": "address"
        }
      ],
      "name": "OwnershipTransferred",
      "type": "event"
    },
    {
      "anonymous": false,
      "inputs": [
        {
          "indexed": true,
          "internalType": "address",
          "name": "from",
          "type": "address"
        },
        {
          "indexed": true,
          "internalType": "address",
          "name": "to",
          "type": "address"
        },
        {
          "indexed": false,
          "internalType": "uint256",
          "name": "value",
          "type": "uint256"
        }
      ],
      "name": "Transfer",
      "type": "event"
    },
    {
      "inputs": [],
      "name": "DOMAIN_SEPARATOR",
      "outputs": [
        {
          "internalType": "bytes32",
          "name": "",
          "type": "bytes32"
        }
      ],
      "stateMutability": "view",
      "type": "function"
    },
    {
      "inputs": [],
      "name": "MAX_SUPPLY",
      "outputs": [
        {
          "internalType": "uint256",
          "name": "",
          "type": "uint256"
        }
      ],
      "stateMutability": "view",
      "type": "function"
    },
    {
      "inputs": [
        {
          "internalType": "address",
          "name": "owner",
          "type": "address"
        },
        {
          "internalType": "address",
          "name": "spender",
          "type": "address"
        }
      ],
      "name": "allowance",
      "outputs": [
        {
          "internalType": "uint256",
          "name": "",
          "type": "uint256"
        }
      ],
      "stateMutability": "view",
      "type": "function"
    },
    {
      "inputs": [
        {
          "internalType": "address",
          "name": "spender",
          "type": "address"
        },
        {
          "internalType": "uint256",
          "name": "amount",
          "type": "uint256"
        }
      ],
      "name": "approve",
      "outputs": [
        {
          "internalType": "bool",
          "name": "",
          "type": "bool"
        }
      ],
      "stateMutability": "nonpayable",
      "type": "function"
    },
    {
      "inputs": [
        {
          "internalType": "address",
          "name": "account",
          "type": "address"
        }
      ],
      "name": "balanceOf",
      "outputs": [
        {
          "internalType": "uint256",
          "name": "",
          "type": "uint256"
        }
      ],
      "stateMutability": "view",
      "type": "function"
    },
    {
      "inputs": [],
      "name": "bettingContract",
      "outputs": [
        {
          "internalType": "address",
          "name": "",
          "type": "address"
        }
      ],
      "stateMutability": "view",
      "type": "function"
    },
    {
      "inputs": [],
      "name": "decimals",
      "outputs": [
        {
          "internalType": "uint8",
          "name": "",
          "type": "uint8"
        }
      ],
      "stateMutability": "pure",
      "type": "function"
    },
    {
      "inputs": [
        {
          "internalType": "address",
          "name": "spender",
          "type": "address"
        },
        {
          "internalType": "uint256",
          "name": "addedValue",
          "type": "uint256"
        }
      ],
      "name": "decreaseAllowance",
      "outputs": [
        {
          "internalType": "bool",
          "name": "",
          "type": "bool"
        }
      ],
      "stateMutability": "nonpayable",
      "type": "function"
    },
    {
      "inputs": [],
      "name": "houseContract",
      "outputs": [
        {
          "internalType": "address",
          "name": "",
          "type": "address"
        }
      ],
      "stateMutability": "view",
      "type": "function"
    },
    {
      "inputs": [
        {
          "internalType": "address",
          "name": "spender",
          "type": "address"
        },
        {
          "internalType": "uint256",
          "name": "addedValue",
          "type": "uint256"
        }
      ],
      "name": "increaseAllowance",
      "outputs": [
        {
          "internalType": "bool",
          "name": "",
          "type": "bool"
        }
      ],
      "stateMutability": "nonpayable",
      "type": "function"
    },
    {
      "inputs": [],
      "name": "maxSupply",
      "outputs": [
        {
          "internalType": "uint256",
          "name": "",
          "type": "uint256"
        }
      ],
      "stateMutability": "pure",
      "type": "function"
    },
    {
      "inputs": [],
      "name": "mint",
      "outputs": [
        {
          "internalType": "bool",
          "name": "",
          "type": "bool"
        }
      ],
      "stateMutability": "nonpayable",
      "type": "function"
    },
    {
      "inputs": [],
      "name": "name",
      "outputs": [
        {
          "internalType": "string",
          "name": "",
          "type": "string"
        }
      ],
      "stateMutability": "view",
      "type": "function"
    },
    {
      "inputs": [
        {
          "internalType": "address",
          "name": "owner",
          "type": "address"
        }
      ],
      "name": "nonces",
      "outputs": [
        {
          "internalType": "uint256",
          "name": "",
          "type": "uint256"
        }
      ],
      "stateMutability": "view",
      "type": "function"
    },
    {
      "inputs": [],
      "name": "owner",
      "outputs": [
        {
          "internalType": "address",
          "name": "",
          "type": "address"
        }
      ],
      "stateMutability": "view",
      "type": "function"
    },
    {
      "inputs": [
        {
          "internalType": "address",
          "name": "owner",
          "type": "address"
        },
        {
          "internalType": "address",
          "name": "spender",
          "type": "address"
        },
        {
          "internalType": "uint256",
          "name": "value",
          "type": "uint256"
        },
        {
          "internalType": "uint256",
          "name": "deadline",
          "type": "uint256"
        },
        {
          "internalType": "uint8",
          "name": "v",
          "type": "uint8"
        },
        {
          "internalType": "bytes32",
          "name": "r",
          "type": "bytes32"
        },
        {
          "internalType": "bytes32",
          "name": "s",
          "type": "bytes32"
        }
      ],
      "name": "permit",
      "outputs": [],
      "stateMutability": "nonpayable",
      "type": "function"
    },
    {
      "inputs": [],
      "name": "renounceOwnership",
      "outputs": [],
      "stateMutability": "nonpayable",
      "type": "function"
    },
    {
      "inputs": [
        {
          "internalType": "address",
          "name": "_bettingContract",
          "type": "address"
        }
      ],
      "name": "setBettingContract",
      "outputs": [
        {
          "internalType": "bool",
          "name": "",
          "type": "bool"
        }
      ],
      "stateMutability": "nonpayable",
      "type": "function"
    },
    {
      "inputs": [
        {
          "internalType": "address",
          "name": "_houseContract",
          "type": "address"
        }
      ],
      "name": "setHouseContract",
      "outputs": [
        {
          "internalType": "bool",
          "name": "",
          "type": "bool"
        }
      ],
      "stateMutability": "nonpayable",
      "type": "function"
    },
    {
      "inputs": [],
      "name": "symbol",
      "outputs": [
        {
          "internalType": "string",
          "name": "",
          "type": "string"
        }
      ],
      "stateMutability": "view",
      "type": "function"
    },
    {
      "inputs": [],
      "name": "totalSupply",
      "outputs": [
        {
          "internalType": "uint256",
          "name": "",
          "type": "uint256"
        }
      ],
      "stateMutability": "view",
      "type": "function"
    },
    {
      "inputs": [
        {
          "internalType": "address",
          "name": "recipient",
          "type": "address"
        },
        {
          "internalType": "uint256",
          "name": "amount",
          "type": "uint256"
        }
      ],
      "name": "transfer",
      "outputs": [
        {
          "internalType": "bool",
          "name": "",
          "type": "bool"
        }
      ],
      "stateMutability": "nonpayable",
      "type": "function"
    },
    {
      "inputs": [
        {
          "internalType": "address",
          "name": "sender",
          "type": "address"
        },
        {
          "internalType": "address",
          "name": "recipient",
          "type": "address"
        },
        {
          "internalType": "uint256",
          "name": "amount",
          "type": "uint256"
        }
      ],
      "name": "transferFrom",
      "outputs": [
        {
          "internalType": "bool",
          "name": "",
          "type": "bool"
        }
      ],
      "stateMutability": "nonpayable",
      "type": "function"
    },
    {
      "inputs": [
        {
          "internalType": "address",
          "name": "newOwner",
          "type": "address"
        }
      ],
      "name": "transferOwnership",
      "outputs": [],
      "stateMutability": "nonpayable",
      "type": "function"
    }
  ],
  "bytecode": "0x6101406040523480156200001257600080fd5b506040516200196938038062001969833981016040819052620000359162000302565b6040518060400160405280600e81526020016d23363ca3363aba3a32b921b7b4b760911b81525080604051806040016040528060018152602001603160f81b8152506040518060400160405280600e81526020016d23363ca3363aba3a32b921b7b4b760911b8152506040518060400160405280600381526020016246464360e81b8152508160039081620000cb9190620003d8565b506004620000da8282620003d8565b505050620000f7620000f1620001e160201b60201c565b620001e5565b815160209283012081519183019190912060e08290526101008190524660a0818152604080517f8b73c3c69bb8fe3d512ecc4cf759cc79239f7b179b0ffacaa9a75d522b39400f818801819052818301969096526060810194909452608080850193909352308483018190528151808603909301835260c0948501909152815191909501209052919091526101205250806001600160a01b038116620001b05760405163867915ab60e01b815260040160405180910390fd5b600980546001600160a01b0319166001600160a01b038416179055620001d98261271062000237565b5050620004cc565b3390565b600580546001600160a01b038381166001600160a01b0319831681179093556040519116919082907f8be0079c531659141344cd1fd0a4f28419497f9722a3daafe3b4186f6b6457e090600090a35050565b6001600160a01b038216620002925760405162461bcd60e51b815260206004820152601f60248201527f45524332303a206d696e7420746f20746865207a65726f206164647265737300604482015260640160405180910390fd5b8060026000828254620002a69190620004a4565b90915550506001600160a01b038216600081815260208181526040808320805486019055518481527fddf252ad1be2c89b69c2b068fc378daa952ba7f163c4a11628f55a4df523b3ef910160405180910390a35050565b505050565b6000602082840312156200031557600080fd5b81516001600160a01b03811681146200032d57600080fd5b9392505050565b634e487b7160e01b600052604160045260246000fd5b600181811c908216806200035f57607f821691505b6020821081036200038057634e487b7160e01b600052602260045260246000fd5b50919050565b601f821115620002fd57600081815260208120601f850160051c81016020861015620003af5750805b601f850160051c820191505b81811015620003d057828155600101620003bb565b505050505050565b81516001600160401b03811115620003f457620003f462000334565b6200040c816200040584546200034a565b8462000386565b602080601f8311600181146200044457600084156200042b5750858301515b600019600386901b1c1916600185901b178555620003d0565b600085815260208120601f198616915b82811015620004755788860151825594840194600190910190840162000454565b5085821015620004945787850151600019600388901b60f8161c191681555b5050505050600190811b01905550565b80820180821115620004c657634e487b7160e01b600052601160045260246000fd5b92915050565b60805160a05160c05160e051610100516101205161144d6200051c6000396000610931015260006109800152600061095b015260006108b4015260006108de01526000610908015261144d6000f3fe608060405234801561001057600080fd5b50600436106101585760003560e01c80635c22aa69116100c3578063a457c2d71161007c578063a457c2d7146102c2578063a9059cbb146102d5578063d505accf146102e8578063d5abeb01146102fb578063dd62ed3e14610304578063f2fde38b1461031757600080fd5b80635c22aa691461025057806370a0823114610263578063715018a61461028c5780637ecebe00146102965780638da5cb5b146102a957806395d89b41146102ba57600080fd5b806323b872dd1161011557806323b872dd146101f657806330fce48b14610209578063313ce5671461021c57806332cb6b0c1461022b5780633644e51514610235578063395093511461023d57600080fd5b806306fdde031461015d578063095ea7b31461017b5780630fdc07441461019e5780631249c58b146101b157806318160ddd146101b957806321cb4831146101cb575b600080fd5b61016561032a565b604051610172919061121b565b60405180910390f35b61018e610189366004611285565b6103bc565b6040519015158152602001610172565b61018e6101ac3660046112af565b610403565b61018e61045b565b6002545b604051908152602001610172565b6008546101de906001600160a01b031681565b6040516001600160a01b039091168152602001610172565b61018e6102043660046112ca565b61049d565b61018e6102173660046112af565b610500565b60405160008152602001610172565b6101bd620f424081565b6101bd610559565b61018e61024b366004611285565b610568565b6009546101de906001600160a01b031681565b6101bd6102713660046112af565b6001600160a01b031660009081526020819052604090205490565b6102946105a6565b005b6101bd6102a43660046112af565b6105ba565b6005546001600160a01b03166101de565b6101656105d8565b61018e6102d0366004611285565b6105e7565b61018e6102e3366004611285565b610625565b6102946102f6366004611306565b610660565b620f42406101bd565b6101bd610312366004611379565b6106a9565b6102946103253660046112af565b6106d4565b606060038054610339906113ac565b80601f0160208091040260200160405190810160405280929190818152602001828054610365906113ac565b80156103b25780601f10610387576101008083540402835291602001916103b2565b820191906000526020600020905b81548152906001019060200180831161039557829003601f168201915b5050505050905090565b6008546000906001600160a01b038481169116146103f0576040516001622c78a160e01b0319815260040160405180910390fd5b6103fa8383610752565b90505b92915050565b600061040d61076a565b816001600160a01b0381166104355760405163867915ab60e01b815260040160405180910390fd5b600980546001600160a01b0319166001600160a01b038516179055600191505b50919050565b33600090815260208190526040812054600a101561048c576040516342e81e7b60e01b815260040160405180910390fd5b6104973360646107c4565b50600190565b6009546000906001600160a01b03858116911614806104c957506009546001600160a01b038481169116145b156104e0576104d9848484610883565b90506104f9565b60405163685cb8bf60e01b815260040160405180910390fd5b9392505050565b600061050a61076a565b816001600160a01b0381166105325760405163867915ab60e01b815260040160405180910390fd5b600880546001600160a01b0385166001600160a01b03199091161790556001915050919050565b60006105636108a7565b905090565b6008546000906001600160a01b0384811691161461059c576040516001622c78a160e01b0319815260040160405180910390fd5b6103fa83836109ce565b6105ae61076a565b6105b860006109f0565b565b6001600160a01b0381166000908152600660205260408120546103fd565b606060048054610339906113ac565b6008546000906001600160a01b0384811691161461061b576040516001622c78a160e01b0319815260040160405180910390fd5b6103fa8383610a42565b6009546000906001600160a01b0384811691161461065657604051632f24a5b360e01b815260040160405180910390fd5b6103fa8383610abd565b6008546001600160a01b03878116911614610691576040516001622c78a160e01b0319815260040160405180910390fd5b6106a087878787878787610acb565b50505050505050565b6001600160a01b03918216600090815260016020908152604080832093909416825291909152205490565b6106dc61076a565b6001600160a01b0381166107465760405162461bcd60e51b815260206004820152602660248201527f4f776e61626c653a206e6577206f776e657220697320746865207a65726f206160448201526564647265737360d01b60648201526084015b60405180910390fd5b61074f816109f0565b50565b600033610760818585610c2f565b5060019392505050565b6005546001600160a01b031633146105b85760405162461bcd60e51b815260206004820181905260248201527f4f776e61626c653a2063616c6c6572206973206e6f7420746865206f776e6572604482015260640161073d565b6001600160a01b03821661081a5760405162461bcd60e51b815260206004820152601f60248201527f45524332303a206d696e7420746f20746865207a65726f206164647265737300604482015260640161073d565b806002600082825461082c91906113e0565b90915550506001600160a01b038216600081815260208181526040808320805486019055518481527fddf252ad1be2c89b69c2b068fc378daa952ba7f163c4a11628f55a4df523b3ef910160405180910390a35050565b600033610891858285610d53565b61089c858585610dcd565b506001949350505050565b6000306001600160a01b037f00000000000000000000000000000000000000000000000000000000000000001614801561090057507f000000000000000000000000000000000000000000000000000000000000000046145b1561092a57507f000000000000000000000000000000000000000000000000000000000000000090565b50604080517f00000000000000000000000000000000000000000000000000000000000000006020808301919091527f0000000000000000000000000000000000000000000000000000000000000000828401527f000000000000000000000000000000000000000000000000000000000000000060608301524660808301523060a0808401919091528351808403909101815260c0909201909252805191012090565b6000336107608185856109e183836106a9565b6109eb91906113e0565b610c2f565b600580546001600160a01b038381166001600160a01b0319831681179093556040519116919082907f8be0079c531659141344cd1fd0a4f28419497f9722a3daafe3b4186f6b6457e090600090a35050565b60003381610a5082866106a9565b905083811015610ab05760405162461bcd60e51b815260206004820152602560248201527f45524332303a2064656372656173656420616c6c6f77616e63652062656c6f77604482015264207a65726f60d81b606482015260840161073d565b61089c8286868403610c2f565b600033610760818585610dcd565b83421115610b1b5760405162461bcd60e51b815260206004820152601d60248201527f45524332305065726d69743a206578706972656420646561646c696e65000000604482015260640161073d565b60007f6e71edae12b1b97f4d1f60370fef10105fa2faae0126114a169c64845d6126c9888888610b4a8c610f71565b6040805160208101969096526001600160a01b0394851690860152929091166060840152608083015260a082015260c0810186905260e0016040516020818303038152906040528051906020012090506000610ba582610f97565b90506000610bb582878787610fe5565b9050896001600160a01b0316816001600160a01b031614610c185760405162461bcd60e51b815260206004820152601e60248201527f45524332305065726d69743a20696e76616c6964207369676e61747572650000604482015260640161073d565b610c238a8a8a610c2f565b50505050505050505050565b6001600160a01b038316610c915760405162461bcd60e51b8152602060048201526024808201527f45524332303a20617070726f76652066726f6d20746865207a65726f206164646044820152637265737360e01b606482015260840161073d565b6001600160a01b038216610cf25760405162461bcd60e51b815260206004820152602260248201527f45524332303a20617070726f766520746f20746865207a65726f206164647265604482015261737360f01b606482015260840161073d565b6001600160a01b0383811660008181526001602090815260408083209487168084529482529182902085905590518481527f8c5be1e5ebec7d5bd14f71427d1e84f3dd0314c0f7b2291e5b200ac8c7c3b925910160405180910390a3505050565b6000610d5f84846106a9565b90506000198114610dc75781811015610dba5760405162461bcd60e51b815260206004820152601d60248201527f45524332303a20696e73756666696369656e7420616c6c6f77616e6365000000604482015260640161073d565b610dc78484848403610c2f565b50505050565b6001600160a01b038316610e315760405162461bcd60e51b815260206004820152602560248201527f45524332303a207472616e736665722066726f6d20746865207a65726f206164604482015264647265737360d81b606482015260840161073d565b6001600160a01b038216610e935760405162461bcd60e51b815260206004820152602360248201527f45524332303a207472616e7366657220746f20746865207a65726f206164647260448201526265737360e81b606482015260840161073d565b6001600160a01b03831660009081526020819052604090205481811015610f0b5760405162461bcd60e51b815260206004820152602660248201527f45524332303a207472616e7366657220616d6f756e7420657863656564732062604482015265616c616e636560d01b606482015260840161073d565b6001600160a01b03848116600081815260208181526040808320878703905593871680835291849020805487019055925185815290927fddf252ad1be2c89b69c2b068fc378daa952ba7f163c4a11628f55a4df523b3ef910160405180910390a3610dc7565b6001600160a01b0381166000908152600660205260409020805460018101825590610455565b60006103fd610fa46108a7565b8360405161190160f01b6020820152602281018390526042810182905260009060620160405160208183030381529060405280519060200120905092915050565b6000806000610ff68787878761100d565b91509150611003816110d1565b5095945050505050565b6000807f7fffffffffffffffffffffffffffffff5d576e7357a4501ddfe92f46681b20a083111561104457506000905060036110c8565b6040805160008082526020820180845289905260ff881692820192909252606081018690526080810185905260019060a0016020604051602081039080840390855afa158015611098573d6000803e3d6000fd5b5050604051601f1901519150506001600160a01b0381166110c1576000600192509250506110c8565b9150600090505b94509492505050565b60008160048111156110e5576110e5611401565b036110ed5750565b600181600481111561110157611101611401565b0361114e5760405162461bcd60e51b815260206004820152601860248201527f45434453413a20696e76616c6964207369676e61747572650000000000000000604482015260640161073d565b600281600481111561116257611162611401565b036111af5760405162461bcd60e51b815260206004820152601f60248201527f45434453413a20696e76616c6964207369676e6174757265206c656e67746800604482015260640161073d565b60038160048111156111c3576111c3611401565b0361074f5760405162461bcd60e51b815260206004820152602260248201527f45434453413a20696e76616c6964207369676e6174757265202773272076616c604482015261756560f01b606482015260840161073d565b600060208083528351808285015260005b818110156112485785810183015185820160400152820161122c565b506000604082860101526040601f19601f8301168501019250505092915050565b80356001600160a01b038116811461128057600080fd5b919050565b6000806040838503121561129857600080fd5b6112a183611269565b946020939093013593505050565b6000602082840312156112c157600080fd5b6103fa82611269565b6000806000606084860312156112df57600080fd5b6112e884611269565b92506112f660208501611269565b9150604084013590509250925092565b600080600080600080600060e0888a03121561132157600080fd5b61132a88611269565b965061133860208901611269565b95506040880135945060608801359350608088013560ff8116811461135c57600080fd5b9699959850939692959460a0840135945060c09093013592915050565b6000806040838503121561138c57600080fd5b61139583611269565b91506113a360208401611269565b90509250929050565b600181811c908216806113c057607f821691505b60208210810361045557634e487b7160e01b600052602260045260246000fd5b808201808211156103fd57634e487b7160e01b600052601160045260246000fd5b634e487b7160e01b600052602160045260246000fdfea2646970667358221220e48801d979e0fb7b15a2232939dcae671f348c0b878b10f8006d111a8a627dff64736f6c63430008130033",
  "linkReferences": {},
  "deployedLinkReferences": {}
}