{
  "_format": "hh-sol-artifact-1",
  "contractName": "CounterResolverTaskCreatorWT",
  "sourceName": "contracts/helpers/CounterResolverTaskCreatorWT.sol",
  "abi": [
    {
      "inputs": [
        {
          "internalType": "address payable",
          "name": "_automate",
          "type": "address"
        },
        {
          "internalType": "address",
          "name": "_fundsOwner",
          "type": "address"
        }
      ],
      "stateMutability": "nonpayable",
      "type": "constructor"
    },
    {
      "anonymous": false,
      "inputs": [
        {
          "indexed": false,
          "internalType": "bytes32",
          "name": "taskId",
          "type": "bytes32"
        }
      ],
      "name": "CounterTaskCreated",
      "type": "event"
    },
    {
      "inputs": [],
      "name": "automate",
      "outputs": [
        {
          "internalType": "contract IAutomate",
          "name": "",
          "type": "address"
        }
      ],
      "stateMutability": "view",
      "type": "function"
    },
    {
      "inputs": [
        {
          "internalType": "bytes32",
          "name": "requestId",
          "type": "bytes32"
        }
      ],
      "name": "checker",
      "outputs": [
        {
          "internalType": "bool",
          "name": "canExec",
          "type": "bool"
        },
        {
          "internalType": "bytes",
          "name": "execPayload",
          "type": "bytes"
        }
      ],
      "stateMutability": "view",
      "type": "function"
    },
    {
      "inputs": [],
      "name": "createTask",
      "outputs": [],
      "stateMutability": "payable",
      "type": "function"
    },
    {
      "inputs": [],
      "name": "dedicatedMsgSender",
      "outputs": [
        {
          "internalType": "address",
          "name": "",
          "type": "address"
        }
      ],
      "stateMutability": "view",
      "type": "function"
    },
    {
      "inputs": [],
      "name": "fundsOwner",
      "outputs": [
        {
          "internalType": "address",
          "name": "",
          "type": "address"
        }
      ],
      "stateMutability": "view",
      "type": "function"
    },
    {
      "inputs": [
        {
          "internalType": "bytes32",
          "name": "requestId",
          "type": "bytes32"
        }
      ],
      "name": "perfomTask",
      "outputs": [],
      "stateMutability": "nonpayable",
      "type": "function"
    },
    {
      "inputs": [
        {
          "internalType": "bytes32",
          "name": "",
          "type": "bytes32"
        }
      ],
      "name": "taks",
      "outputs": [
        {
          "internalType": "string",
          "name": "taskAccomplished",
          "type": "string"
        },
        {
          "internalType": "bytes32",
          "name": "requestId",
          "type": "bytes32"
        },
        {
          "internalType": "bytes32",
          "name": "taskId",
          "type": "bytes32"
        },
        {
          "internalType": "bool",
          "name": "waitingPerformTask",
          "type": "bool"
        }
      ],
      "stateMutability": "view",
      "type": "function"
    },
    {
      "inputs": [
        {
          "internalType": "address",
          "name": "",
          "type": "address"
        },
        {
          "internalType": "uint256",
          "name": "",
          "type": "uint256"
        }
      ],
      "name": "taksIdPerAddress",
      "outputs": [
        {
          "internalType": "bytes32",
          "name": "",
          "type": "bytes32"
        }
      ],
      "stateMutability": "view",
      "type": "function"
    },
    {
      "inputs": [],
      "name": "taskTreasury",
      "outputs": [
        {
          "internalType": "contract ITaskTreasuryUpgradable",
          "name": "",
          "type": "address"
        }
      ],
      "stateMutability": "view",
      "type": "function"
    },
    {
      "inputs": [
        {
          "internalType": "bytes32",
          "name": "requestId",
          "type": "bytes32"
        }
      ],
      "name": "testPerfomTask",
      "outputs": [],
      "stateMutability": "nonpayable",
      "type": "function"
    },
    {
      "stateMutability": "payable",
      "type": "receive"
    }
  ],
  "bytecode": "0x6101206040523480156200001257600080fd5b50604051620025d2380380620025d2833981810160405281019062000038919062000373565b818181308173ffffffffffffffffffffffffffffffffffffffff1660808173ffffffffffffffffffffffffffffffffffffffff16815250508173ffffffffffffffffffffffffffffffffffffffff1663573ea5756040518163ffffffff1660e01b8152600401602060405180830381865afa158015620000bc573d6000803e3d6000fd5b505050506040513d601f19601f82011682018060405250810190620000e29190620003ba565b73ffffffffffffffffffffffffffffffffffffffff1660c08173ffffffffffffffffffffffffffffffffffffffff168152505073c815db16d4be6ddf2685c201937905abf338f5d773ffffffffffffffffffffffffffffffffffffffff1663ded89a7c826040518263ffffffff1660e01b8152600401620001649190620003fd565b6040805180830381865afa15801562000181573d6000803e3d6000fd5b505050506040513d601f19601f82011682018060405250810190620001a7919062000457565b508073ffffffffffffffffffffffffffffffffffffffff1660a09073ffffffffffffffffffffffffffffffffffffffff168152505050508073ffffffffffffffffffffffffffffffffffffffff1660e08173ffffffffffffffffffffffffffffffffffffffff168152505060805173ffffffffffffffffffffffffffffffffffffffff1663e60a32136040518163ffffffff1660e01b8152600401602060405180830381865afa15801562000260573d6000803e3d6000fd5b505050506040513d601f19601f82011682018060405250810190620002869190620004e3565b73ffffffffffffffffffffffffffffffffffffffff166101008173ffffffffffffffffffffffffffffffffffffffff16815250505050505062000515565b600080fd5b600073ffffffffffffffffffffffffffffffffffffffff82169050919050565b6000620002f682620002c9565b9050919050565b6200030881620002e9565b81146200031457600080fd5b50565b6000815190506200032881620002fd565b92915050565b60006200033b82620002c9565b9050919050565b6200034d816200032e565b81146200035957600080fd5b50565b6000815190506200036d8162000342565b92915050565b600080604083850312156200038d576200038c620002c4565b5b60006200039d8582860162000317565b9250506020620003b0858286016200035c565b9150509250929050565b600060208284031215620003d357620003d2620002c4565b5b6000620003e38482850162000317565b91505092915050565b620003f7816200032e565b82525050565b6000602082019050620004146000830184620003ec565b92915050565b60008115159050919050565b62000431816200041a565b81146200043d57600080fd5b50565b600081519050620004518162000426565b92915050565b60008060408385031215620004715762000470620002c4565b5b600062000481858286016200035c565b9250506020620004948582860162000440565b9150509250929050565b6000620004ab826200032e565b9050919050565b620004bd816200049e565b8114620004c957600080fd5b50565b600081519050620004dd81620004b2565b92915050565b600060208284031215620004fc57620004fb620002c4565b5b60006200050c84828501620004cc565b91505092915050565b60805160a05160c05160e051610100516120556200057d6000396000610a3e0152600061034d015260008181610bd60152610caa01526000818161028a015261037101526000818161026601528181610a6201528181610af30152610d1b01526120556000f3fe6080604052600436106100955760003560e01c806388cfd21b1161005957806388cfd21b14610189578063a1f9aefb146101c6578063a7476493146101ef578063da7003ab146101f9578063e60a3213146102395761009c565b8063049aacfe146100a157806328f150eb146100cc5780633f555c72146100f757806346ee3c5914610135578063499ff5d1146101605761009c565b3661009c57005b600080fd5b3480156100ad57600080fd5b506100b6610264565b6040516100c3919061115e565b60405180910390f35b3480156100d857600080fd5b506100e1610288565b6040516100ee919061119a565b60405180910390f35b34801561010357600080fd5b5061011e600480360381019061011991906111f0565b6102ac565b60405161012c9291906112c8565b60405180910390f35b34801561014157600080fd5b5061014a61034b565b604051610157919061119a565b60405180910390f35b34801561016c57600080fd5b50610187600480360381019061018291906111f0565b61036f565b005b34801561019557600080fd5b506101b060048036038101906101ab919061135a565b6104e8565b6040516101bd91906113a9565b60405180910390f35b3480156101d257600080fd5b506101ed60048036038101906101e891906111f0565b610519565b005b6101f761054a565b005b34801561020557600080fd5b50610220600480360381019061021b91906111f0565b610977565b6040516102309493929190611419565b60405180910390f35b34801561024557600080fd5b5061024e610a3c565b60405161025b9190611486565b60405180910390f35b7f000000000000000000000000000000000000000000000000000000000000000081565b7f000000000000000000000000000000000000000000000000000000000000000081565b6000606060008084815260200190815260200160002060030160009054906101000a900460ff1691503073ffffffffffffffffffffffffffffffffffffffff1663499ff5d18460405160240161030291906113a9565b604051602081830303815290604052915060e01b6020820180517bffffffffffffffffffffffffffffffffffffffffffffffffffffffff83818316178352505050509050915091565b7f000000000000000000000000000000000000000000000000000000000000000081565b7f000000000000000000000000000000000000000000000000000000000000000073ffffffffffffffffffffffffffffffffffffffff163373ffffffffffffffffffffffffffffffffffffffff16146103fd576040517f08c379a00000000000000000000000000000000000000000000000000000000081526004016103f4906114ed565b60405180910390fd5b60008082815260200190815260200160002060030160009054906101000a900460ff16156104ca576040518060400160405280601b81526020017f7461736b20636f6d706c65746564207375636365737366756c6c790000000000815250600080838152602001908152602001600020600001908161047c919061173e565b50600080600083815260200190815260200160002060030160006101000a81548160ff0219169083151502179055506104c960008083815260200190815260200160002060020154610a60565b5b6000806104d5610aee565b915091506104e38282610b8b565b505050565b6001602052816000526040600020818154811061050457600080fd5b90600052602060002001600091509150505481565b600160008083815260200190815260200160002060030160006101000a81548160ff02191690831515021790555050565b67016345785d8a00003414610594576040517f08c379a000000000000000000000000000000000000000000000000000000000815260040161058b9061185c565b60405180910390fd5b6000426040516020016105a7919061189d565b60405160208183030381529060405280519060200120905060006040518060400160405280600267ffffffffffffffff8111156105e7576105e661150d565b5b6040519080825280602002602001820160405280156106155781602001602082028036833780820191505090505b508152602001600267ffffffffffffffff8111156106365761063561150d565b5b60405190808252806020026020018201604052801561066957816020015b60608152602001906001900390816106545790505b50815250905060008160000151600081518110610689576106886118b8565b5b602002602001019060038111156106a3576106a26118e7565b5b908160038111156106b7576106b66118e7565b5b81525050600281600001516001815181106106d5576106d46118b8565b5b602002602001019060038111156106ef576106ee6118e7565b5b90816003811115610703576107026118e7565b5b8152505061077f303073ffffffffffffffffffffffffffffffffffffffff16633f555c728560405160240161073891906113a9565b604051602081830303815290604052915060e01b6020820180517bffffffffffffffffffffffffffffffffffffffffffffffffffffffff8381831617835250505050610cd4565b8160200151600081518110610797576107966118b8565b5b60200260200101819052506107aa610d00565b81602001516001815181106107c2576107c16118b8565b5b602002602001018190525060006108153063499ff5d160e01b6040516020016107eb9190611951565b6040516020818303038152906040528473eeeeeeeeeeeeeeeeeeeeeeeeeeeeeeeeeeeeeeee610d17565b9050600060405180608001604052806040518060400160405280600c81526020017f73746172746564207461736b0000000000000000000000000000000000000000815250815260200185815260200183815260200160001515815250905080600080868152602001908152602001600020600082015181600001908161089c919061173e565b50602082015181600101556040820151816002015560608201518160030160006101000a81548160ff021916908315150217905550905050600160003373ffffffffffffffffffffffffffffffffffffffff1673ffffffffffffffffffffffffffffffffffffffff1681526020019081526020016000208490806001815401808255809150506001900390600052602060002001600090919091909150557fa585557108354aa3685e5fe0424ad88ab5bcabc78119a3d599ae901ccb1999938260405161096991906113a9565b60405180910390a150505050565b600060205280600052604060002060009150905080600001805461099a9061156b565b80601f01602080910402602001604051908101604052809291908181526020018280546109c69061156b565b8015610a135780601f106109e857610100808354040283529160200191610a13565b820191906000526020600020905b8154815290600101906020018083116109f657829003601f168201915b5050505050908060010154908060020154908060030160009054906101000a900460ff16905084565b7f000000000000000000000000000000000000000000000000000000000000000081565b7f000000000000000000000000000000000000000000000000000000000000000073ffffffffffffffffffffffffffffffffffffffff1663ee8ca3b5826040518263ffffffff1660e01b8152600401610ab991906113a9565b600060405180830381600087803b158015610ad357600080fd5b505af1158015610ae7573d6000803e3d6000fd5b5050505050565b6000807f000000000000000000000000000000000000000000000000000000000000000073ffffffffffffffffffffffffffffffffffffffff1663b810c6366040518163ffffffff1660e01b81526004016040805180830381865afa158015610b5b573d6000803e3d6000fd5b505050506040513d601f19601f82011682018060405250810190610b7f9190611996565b80925081935050509091565b73eeeeeeeeeeeeeeeeeeeeeeeeeeeeeeeeeeeeeeee73ffffffffffffffffffffffffffffffffffffffff168173ffffffffffffffffffffffffffffffffffffffff1603610ca45760007f000000000000000000000000000000000000000000000000000000000000000073ffffffffffffffffffffffffffffffffffffffff1683604051610c1890611a07565b60006040518083038185875af1925050503d8060008114610c55576040519150601f19603f3d011682016040523d82523d6000602084013e610c5a565b606091505b5050905080610c9e576040517f08c379a0000000000000000000000000000000000000000000000000000000008152600401610c9590611a68565b60405180910390fd5b50610cd0565b610ccf817f000000000000000000000000000000000000000000000000000000000000000084610dc5565b5b5050565b60608282604051602001610ce9929190611a88565b604051602081830303815290604052905092915050565b606060405180602001604052806000815250905090565b60007f000000000000000000000000000000000000000000000000000000000000000073ffffffffffffffffffffffffffffffffffffffff16633323b467868686866040518563ffffffff1660e01b8152600401610d789493929190611cff565b6020604051808303816000875af1158015610d97573d6000803e3d6000fd5b505050506040513d601f19601f82011682018060405250810190610dbb9190611d67565b9050949350505050565b610e468363a9059cbb60e01b8484604051602401610de4929190611da3565b604051602081830303815290604052907bffffffffffffffffffffffffffffffffffffffffffffffffffffffff19166020820180517bffffffffffffffffffffffffffffffffffffffffffffffffffffffff8381831617835250505050610e4b565b505050565b6000610ead826040518060400160405280602081526020017f5361666545524332303a206c6f772d6c6576656c2063616c6c206661696c65648152508573ffffffffffffffffffffffffffffffffffffffff16610f129092919063ffffffff16565b9050600081511115610f0d5780806020019051810190610ecd9190611df8565b610f0c576040517f08c379a0000000000000000000000000000000000000000000000000000000008152600401610f0390611e97565b60405180910390fd5b5b505050565b6060610f218484600085610f2a565b90509392505050565b606082471015610f6f576040517f08c379a0000000000000000000000000000000000000000000000000000000008152600401610f6690611f29565b60405180910390fd5b6000808673ffffffffffffffffffffffffffffffffffffffff168587604051610f989190611f7a565b60006040518083038185875af1925050503d8060008114610fd5576040519150601f19603f3d011682016040523d82523d6000602084013e610fda565b606091505b5091509150610feb87838387610ff7565b92505050949350505050565b60608315611059576000835103611051576110118561106c565b611050576040517f08c379a000000000000000000000000000000000000000000000000000000000815260040161104790611fdd565b60405180910390fd5b5b829050611064565b611063838361108f565b5b949350505050565b6000808273ffffffffffffffffffffffffffffffffffffffff163b119050919050565b6000825111156110a25781518083602001fd5b806040517f08c379a00000000000000000000000000000000000000000000000000000000081526004016110d69190611ffd565b60405180910390fd5b600073ffffffffffffffffffffffffffffffffffffffff82169050919050565b6000819050919050565b600061112461111f61111a846110df565b6110ff565b6110df565b9050919050565b600061113682611109565b9050919050565b60006111488261112b565b9050919050565b6111588161113d565b82525050565b6000602082019050611173600083018461114f565b92915050565b6000611184826110df565b9050919050565b61119481611179565b82525050565b60006020820190506111af600083018461118b565b92915050565b600080fd5b6000819050919050565b6111cd816111ba565b81146111d857600080fd5b50565b6000813590506111ea816111c4565b92915050565b600060208284031215611206576112056111b5565b5b6000611214848285016111db565b91505092915050565b60008115159050919050565b6112328161121d565b82525050565b600081519050919050565b600082825260208201905092915050565b60005b83811015611272578082015181840152602081019050611257565b60008484015250505050565b6000601f19601f8301169050919050565b600061129a82611238565b6112a48185611243565b93506112b4818560208601611254565b6112bd8161127e565b840191505092915050565b60006040820190506112dd6000830185611229565b81810360208301526112ef818461128f565b90509392505050565b61130181611179565b811461130c57600080fd5b50565b60008135905061131e816112f8565b92915050565b6000819050919050565b61133781611324565b811461134257600080fd5b50565b6000813590506113548161132e565b92915050565b60008060408385031215611371576113706111b5565b5b600061137f8582860161130f565b925050602061139085828601611345565b9150509250929050565b6113a3816111ba565b82525050565b60006020820190506113be600083018461139a565b92915050565b600081519050919050565b600082825260208201905092915050565b60006113eb826113c4565b6113f581856113cf565b9350611405818560208601611254565b61140e8161127e565b840191505092915050565b6000608082019050818103600083015261143381876113e0565b9050611442602083018661139a565b61144f604083018561139a565b61145c6060830184611229565b95945050505050565b60006114708261112b565b9050919050565b61148081611465565b82525050565b600060208201905061149b6000830184611477565b92915050565b7f4f6e6c7920646564696361746564206d73672e73656e64657200000000000000600082015250565b60006114d76019836113cf565b91506114e2826114a1565b602082019050919050565b60006020820190508181036000830152611506816114ca565b9050919050565b7f4e487b7100000000000000000000000000000000000000000000000000000000600052604160045260246000fd5b7f4e487b7100000000000000000000000000000000000000000000000000000000600052602260045260246000fd5b6000600282049050600182168061158357607f821691505b6020821081036115965761159561153c565b5b50919050565b60008190508160005260206000209050919050565b60006020601f8301049050919050565b600082821b905092915050565b6000600883026115fe7fffffffffffffffffffffffffffffffffffffffffffffffffffffffffffffffff826115c1565b61160886836115c1565b95508019841693508086168417925050509392505050565b600061163b61163661163184611324565b6110ff565b611324565b9050919050565b6000819050919050565b61165583611620565b61166961166182611642565b8484546115ce565b825550505050565b600090565b61167e611671565b61168981848461164c565b505050565b5b818110156116ad576116a2600082611676565b60018101905061168f565b5050565b601f8211156116f2576116c38161159c565b6116cc846115b1565b810160208510156116db578190505b6116ef6116e7856115b1565b83018261168e565b50505b505050565b600082821c905092915050565b6000611715600019846008026116f7565b1980831691505092915050565b600061172e8383611704565b9150826002028217905092915050565b611747826113c4565b67ffffffffffffffff8111156117605761175f61150d565b5b61176a825461156b565b6117758282856116b1565b600060209050601f8311600181146117a85760008415611796578287015190505b6117a08582611722565b865550611808565b601f1984166117b68661159c565b60005b828110156117de578489015182556001820191506020850194506020810190506117b9565b868310156117fb57848901516117f7601f891682611704565b8355505b6001600288020188555050505b505050505050565b7f77726f6e67206d73672e76616c75650000000000000000000000000000000000600082015250565b6000611846600f836113cf565b915061185182611810565b602082019050919050565b6000602082019050818103600083015261187581611839565b9050919050565b6000819050919050565b61189761189282611324565b61187c565b82525050565b60006118a98284611886565b60208201915081905092915050565b7f4e487b7100000000000000000000000000000000000000000000000000000000600052603260045260246000fd5b7f4e487b7100000000000000000000000000000000000000000000000000000000600052602160045260246000fd5b60007fffffffff0000000000000000000000000000000000000000000000000000000082169050919050565b61194b81611916565b82525050565b60006020820190506119666000830184611942565b92915050565b60008151905061197b8161132e565b92915050565b600081519050611990816112f8565b92915050565b600080604083850312156119ad576119ac6111b5565b5b60006119bb8582860161196c565b92505060206119cc85828601611981565b9150509250929050565b600081905092915050565b50565b60006119f16000836119d6565b91506119fc826119e1565b600082019050919050565b6000611a12826119e4565b9150819050919050565b7f5f7472616e736665723a20455448207472616e73666572206661696c65640000600082015250565b6000611a52601e836113cf565b9150611a5d82611a1c565b602082019050919050565b60006020820190508181036000830152611a8181611a45565b9050919050565b6000604082019050611a9d600083018561118b565b8181036020830152611aaf818461128f565b90509392505050565b600081519050919050565b600082825260208201905092915050565b6000819050602082019050919050565b60048110611af557611af46118e7565b5b50565b6000819050611b0682611ae4565b919050565b6000611b1682611af8565b9050919050565b611b2681611b0b565b82525050565b6000611b388383611b1d565b60208301905092915050565b6000602082019050919050565b6000611b5c82611ab8565b611b668185611ac3565b9350611b7183611ad4565b8060005b83811015611ba2578151611b898882611b2c565b9750611b9483611b44565b925050600181019050611b75565b5085935050505092915050565b600081519050919050565b600082825260208201905092915050565b6000819050602082019050919050565b600082825260208201905092915050565b6000611bf782611238565b611c018185611bdb565b9350611c11818560208601611254565b611c1a8161127e565b840191505092915050565b6000611c318383611bec565b905092915050565b6000602082019050919050565b6000611c5182611baf565b611c5b8185611bba565b935083602082028501611c6d85611bcb565b8060005b85811015611ca95784840389528151611c8a8582611c25565b9450611c9583611c39565b925060208a01995050600181019050611c71565b50829750879550505050505092915050565b60006040830160008301518482036000860152611cd88282611b51565b91505060208301518482036020860152611cf28282611c46565b9150508091505092915050565b6000608082019050611d14600083018761118b565b8181036020830152611d26818661128f565b90508181036040830152611d3a8185611cbb565b9050611d49606083018461118b565b95945050505050565b600081519050611d61816111c4565b92915050565b600060208284031215611d7d57611d7c6111b5565b5b6000611d8b84828501611d52565b91505092915050565b611d9d81611324565b82525050565b6000604082019050611db8600083018561118b565b611dc56020830184611d94565b9392505050565b611dd58161121d565b8114611de057600080fd5b50565b600081519050611df281611dcc565b92915050565b600060208284031215611e0e57611e0d6111b5565b5b6000611e1c84828501611de3565b91505092915050565b7f5361666545524332303a204552433230206f7065726174696f6e20646964206e60008201527f6f74207375636365656400000000000000000000000000000000000000000000602082015250565b6000611e81602a836113cf565b9150611e8c82611e25565b604082019050919050565b60006020820190508181036000830152611eb081611e74565b9050919050565b7f416464726573733a20696e73756666696369656e742062616c616e636520666f60008201527f722063616c6c0000000000000000000000000000000000000000000000000000602082015250565b6000611f136026836113cf565b9150611f1e82611eb7565b604082019050919050565b60006020820190508181036000830152611f4281611f06565b9050919050565b6000611f5482611238565b611f5e81856119d6565b9350611f6e818560208601611254565b80840191505092915050565b6000611f868284611f49565b915081905092915050565b7f416464726573733a2063616c6c20746f206e6f6e2d636f6e7472616374000000600082015250565b6000611fc7601d836113cf565b9150611fd282611f91565b602082019050919050565b60006020820190508181036000830152611ff681611fba565b9050919050565b6000602082019050818103600083015261201781846113e0565b90509291505056fea2646970667358221220c715e9303aa7df7ea827431a6d3f36d5fb683d5beae03f0230f5881656e16a7a64736f6c63430008130033",
  "linkReferences": {},
  "deployedLinkReferences": {}
}