{
  "_format": "hh-sol-artifact-1",
  "contractName": "RemixQrngExample",
  "sourceName": "contracts/helpers/QrngExample.sol",
  "abi": [
    {
      "inputs": [
        {
          "internalType": "address",
          "name": "_airnodeRrp",
          "type": "address"
        }
      ],
      "stateMutability": "nonpayable",
      "type": "constructor"
    },
    {
      "anonymous": false,
      "inputs": [
        {
          "indexed": true,
          "internalType": "bytes32",
          "name": "requestId",
          "type": "bytes32"
        },
        {
          "indexed": false,
          "internalType": "uint256",
          "name": "response",
          "type": "uint256"
        }
      ],
      "name": "ReceivedUint256",
      "type": "event"
    },
    {
      "anonymous": false,
      "inputs": [
        {
          "indexed": true,
          "internalType": "bytes32",
          "name": "requestId",
          "type": "bytes32"
        }
      ],
      "name": "RequestedUint256",
      "type": "event"
    },
    {
      "inputs": [],
      "name": "airnode",
      "outputs": [
        {
          "internalType": "address",
          "name": "",
          "type": "address"
        }
      ],
      "stateMutability": "view",
      "type": "function"
    },
    {
      "inputs": [],
      "name": "airnodeRrp",
      "outputs": [
        {
          "internalType": "contract IAirnodeRrpV0",
          "name": "",
          "type": "address"
        }
      ],
      "stateMutability": "view",
      "type": "function"
    },
    {
      "inputs": [],
      "name": "endpointIdUint256",
      "outputs": [
        {
          "internalType": "bytes32",
          "name": "",
          "type": "bytes32"
        }
      ],
      "stateMutability": "view",
      "type": "function"
    },
    {
      "inputs": [
        {
          "internalType": "bytes32",
          "name": "requestId",
          "type": "bytes32"
        },
        {
          "internalType": "bytes",
          "name": "data",
          "type": "bytes"
        }
      ],
      "name": "fulfillUint256",
      "outputs": [],
      "stateMutability": "nonpayable",
      "type": "function"
    },
    {
      "inputs": [],
      "name": "latestRequest",
      "outputs": [
        {
          "internalType": "bytes32",
          "name": "requestId",
          "type": "bytes32"
        },
        {
          "internalType": "uint256",
          "name": "randomNumber",
          "type": "uint256"
        }
      ],
      "stateMutability": "view",
      "type": "function"
    },
    {
      "inputs": [],
      "name": "makeRequestUint256",
      "outputs": [],
      "stateMutability": "nonpayable",
      "type": "function"
    },
    {
      "inputs": [
        {
          "internalType": "address",
          "name": "_airnode",
          "type": "address"
        },
        {
          "internalType": "bytes32",
          "name": "_endpointIdUint256",
          "type": "bytes32"
        },
        {
          "internalType": "address",
          "name": "_sponsorWallet",
          "type": "address"
        }
      ],
      "name": "setRequestParameters",
      "outputs": [],
      "stateMutability": "nonpayable",
      "type": "function"
    },
    {
      "inputs": [],
      "name": "sponsorWallet",
      "outputs": [
        {
          "internalType": "address",
          "name": "",
          "type": "address"
        }
      ],
      "stateMutability": "view",
      "type": "function"
    },
    {
      "inputs": [
        {
          "internalType": "bytes32",
          "name": "",
          "type": "bytes32"
        }
      ],
      "name": "waitingFulfillment",
      "outputs": [
        {
          "internalType": "bool",
          "name": "",
          "type": "bool"
        }
      ],
      "stateMutability": "view",
      "type": "function"
    }
  ],
  "bytecode": "0x60a06040523480156200001157600080fd5b5060405162000d9a38038062000d9a833981810160405281019062000037919062000150565b808073ffffffffffffffffffffffffffffffffffffffff1660808173ffffffffffffffffffffffffffffffffffffffff16815250508073ffffffffffffffffffffffffffffffffffffffff1663addf027c3060016040518363ffffffff1660e01b8152600401620000aa929190620001b0565b600060405180830381600087803b158015620000c557600080fd5b505af1158015620000da573d6000803e3d6000fd5b505050505050620001dd565b600080fd5b600073ffffffffffffffffffffffffffffffffffffffff82169050919050565b60006200011882620000eb565b9050919050565b6200012a816200010b565b81146200013657600080fd5b50565b6000815190506200014a816200011f565b92915050565b600060208284031215620001695762000168620000e6565b5b6000620001798482850162000139565b91505092915050565b6200018d816200010b565b82525050565b60008115159050919050565b620001aa8162000193565b82525050565b6000604082019050620001c7600083018562000182565b620001d660208301846200019f565b9392505050565b608051610b9362000207600039600081816101c90152818161033e015261044d0152610b936000f3fe608060405234801561001057600080fd5b50600436106100935760003560e01c80637bdf2525116100665780637bdf252514610120578063a0a3f0801461013c578063a36ff4d81461015b578063bf90fb4e14610179578063dea12bad1461019757610093565b806307b9fc57146100985780631956303d146100b65780633718d90a146100e657806371bab66614610102575b600080fd5b6100a06101a1565b6040516100ad91906105c8565b60405180910390f35b6100d060048036038101906100cb9190610619565b6101a7565b6040516100dd9190610661565b60405180910390f35b61010060048036038101906100fb91906106e1565b6101c7565b005b61010a61033c565b60405161011791906107c0565b60405180910390f35b61013a60048036038101906101359190610819565b610360565b005b6101446103ed565b604051610152929190610885565b60405180910390f35b6101636103ff565b60405161017091906108bd565b60405180910390f35b610181610423565b60405161018e91906108bd565b60405180910390f35b61019f610449565b005b60015481565b60036020528060005260406000206000915054906101000a900460ff1681565b7f000000000000000000000000000000000000000000000000000000000000000073ffffffffffffffffffffffffffffffffffffffff163373ffffffffffffffffffffffffffffffffffffffff1614610255576040517f08c379a000000000000000000000000000000000000000000000000000000000815260040161024c90610935565b60405180910390fd5b6003600084815260200190815260200160002060009054906101000a900460ff166102b5576040517f08c379a00000000000000000000000000000000000000000000000000000000081526004016102ac906109a1565b60405180910390fd5b60006003600085815260200190815260200160002060006101000a81548160ff021916908315150217905550600082828101906102f291906109ed565b905080600460010181905550837f1ca47bacd454c26163f84eff4aa514e291ba9fa67ad6029e39567c122bbed30f8260405161032e9190610a1a565b60405180910390a250505050565b7f000000000000000000000000000000000000000000000000000000000000000081565b826000806101000a81548173ffffffffffffffffffffffffffffffffffffffff021916908373ffffffffffffffffffffffffffffffffffffffff1602179055508160018190555080600260006101000a81548173ffffffffffffffffffffffffffffffffffffffff021916908373ffffffffffffffffffffffffffffffffffffffff160217905550505050565b60048060000154908060010154905082565b60008054906101000a900473ffffffffffffffffffffffffffffffffffffffff1681565b600260009054906101000a900473ffffffffffffffffffffffffffffffffffffffff1681565b60007f000000000000000000000000000000000000000000000000000000000000000073ffffffffffffffffffffffffffffffffffffffff16636e6be03f60008054906101000a900473ffffffffffffffffffffffffffffffffffffffff1660015430600260009054906101000a900473ffffffffffffffffffffffffffffffffffffffff1630633718d90a60e01b6040518763ffffffff1660e01b81526004016104f996959493929190610aa7565b6020604051808303816000875af1158015610518573d6000803e3d6000fd5b505050506040513d601f19601f8201168201806040525081019061053c9190610b30565b905060016003600083815260200190815260200160002060006101000a81548160ff021916908315150217905550806004600001819055506000600460010181905550807fcba2da2f3c0c732a104019a3104936397dde7343964c1518ceb760052e4537b160405160405180910390a250565b6000819050919050565b6105c2816105af565b82525050565b60006020820190506105dd60008301846105b9565b92915050565b600080fd5b600080fd5b6105f6816105af565b811461060157600080fd5b50565b600081359050610613816105ed565b92915050565b60006020828403121561062f5761062e6105e3565b5b600061063d84828501610604565b91505092915050565b60008115159050919050565b61065b81610646565b82525050565b60006020820190506106766000830184610652565b92915050565b600080fd5b600080fd5b600080fd5b60008083601f8401126106a1576106a061067c565b5b8235905067ffffffffffffffff8111156106be576106bd610681565b5b6020830191508360018202830111156106da576106d9610686565b5b9250929050565b6000806000604084860312156106fa576106f96105e3565b5b600061070886828701610604565b935050602084013567ffffffffffffffff811115610729576107286105e8565b5b6107358682870161068b565b92509250509250925092565b600073ffffffffffffffffffffffffffffffffffffffff82169050919050565b6000819050919050565b600061078661078161077c84610741565b610761565b610741565b9050919050565b60006107988261076b565b9050919050565b60006107aa8261078d565b9050919050565b6107ba8161079f565b82525050565b60006020820190506107d560008301846107b1565b92915050565b60006107e682610741565b9050919050565b6107f6816107db565b811461080157600080fd5b50565b600081359050610813816107ed565b92915050565b600080600060608486031215610832576108316105e3565b5b600061084086828701610804565b935050602061085186828701610604565b925050604061086286828701610804565b9150509250925092565b6000819050919050565b61087f8161086c565b82525050565b600060408201905061089a60008301856105b9565b6108a76020830184610876565b9392505050565b6108b7816107db565b82525050565b60006020820190506108d260008301846108ae565b92915050565b600082825260208201905092915050565b7f43616c6c6572206e6f74204169726e6f64652052525000000000000000000000600082015250565b600061091f6016836108d8565b915061092a826108e9565b602082019050919050565b6000602082019050818103600083015261094e81610912565b9050919050565b7f52657175657374204944206e6f74206b6e6f776e000000000000000000000000600082015250565b600061098b6014836108d8565b915061099682610955565b602082019050919050565b600060208201905081810360008301526109ba8161097e565b9050919050565b6109ca8161086c565b81146109d557600080fd5b50565b6000813590506109e7816109c1565b92915050565b600060208284031215610a0357610a026105e3565b5b6000610a11848285016109d8565b91505092915050565b6000602082019050610a2f6000830184610876565b92915050565b60007fffffffff0000000000000000000000000000000000000000000000000000000082169050919050565b610a6a81610a35565b82525050565b600082825260208201905092915050565b50565b6000610a91600083610a70565b9150610a9c82610a81565b600082019050919050565b600060e082019050610abc60008301896108ae565b610ac960208301886105b9565b610ad660408301876108ae565b610ae360608301866108ae565b610af060808301856108ae565b610afd60a0830184610a61565b81810360c0830152610b0e81610a84565b9050979650505050505050565b600081519050610b2a816105ed565b92915050565b600060208284031215610b4657610b456105e3565b5b6000610b5484828501610b1b565b9150509291505056fea264697066735822122077670f3da6e8372a0fa7df2e1ebd7fb39afd52c857593a7336228732d03623ef64736f6c63430008130033",
  "linkReferences": {},
  "deployedLinkReferences": {}
}