{
  "_format": "hh-sol-artifact-1",
  "contractName": "DummyBetting",
  "sourceName": "contracts/helpers/DummyBetting.sol",
  "abi": [
    {
      "inputs": [
        {
          "internalType": "address",
          "name": "houseAddress",
          "type": "address"
        }
      ],
      "stateMutability": "nonpayable",
      "type": "constructor"
    },
    {
      "anonymous": false,
      "inputs": [
        {
          "indexed": true,
          "internalType": "address",
          "name": "previousOwner",
          "type": "address"
        },
        {
          "indexed": true,
          "internalType": "address",
          "name": "newOwner",
          "type": "address"
        }
      ],
      "name": "OwnershipTransferred",
      "type": "event"
    },
    {
      "inputs": [],
      "name": "owner",
      "outputs": [
        {
          "internalType": "address",
          "name": "",
          "type": "address"
        }
      ],
      "stateMutability": "view",
      "type": "function"
    },
    {
      "inputs": [
        {
          "internalType": "uint256",
          "name": "amount",
          "type": "uint256"
        }
      ],
      "name": "receiveBet",
      "outputs": [],
      "stateMutability": "nonpayable",
      "type": "function"
    },
    {
      "inputs": [],
      "name": "renounceOwnership",
      "outputs": [],
      "stateMutability": "nonpayable",
      "type": "function"
    },
    {
      "inputs": [
        {
          "internalType": "address",
          "name": "player",
          "type": "address"
        },
        {
          "internalType": "uint256",
          "name": "amount",
          "type": "uint256"
        }
      ],
      "name": "sendBet",
      "outputs": [],
      "stateMutability": "nonpayable",
      "type": "function"
    },
    {
      "inputs": [
        {
          "internalType": "address",
          "name": "newOwner",
          "type": "address"
        }
      ],
      "name": "transferOwnership",
      "outputs": [],
      "stateMutability": "nonpayable",
      "type": "function"
    }
  ],
  "bytecode": "0x608060405234801561001057600080fd5b5060405161090a38038061090a833981810160405281019061003291906101c4565b61004e61004361009560201b60201c565b61009d60201b60201c565b80600160006101000a81548173ffffffffffffffffffffffffffffffffffffffff021916908373ffffffffffffffffffffffffffffffffffffffff160217905550506101f1565b600033905090565b60008060009054906101000a900473ffffffffffffffffffffffffffffffffffffffff169050816000806101000a81548173ffffffffffffffffffffffffffffffffffffffff021916908373ffffffffffffffffffffffffffffffffffffffff1602179055508173ffffffffffffffffffffffffffffffffffffffff168173ffffffffffffffffffffffffffffffffffffffff167f8be0079c531659141344cd1fd0a4f28419497f9722a3daafe3b4186f6b6457e060405160405180910390a35050565b600080fd5b600073ffffffffffffffffffffffffffffffffffffffff82169050919050565b600061019182610166565b9050919050565b6101a181610186565b81146101ac57600080fd5b50565b6000815190506101be81610198565b92915050565b6000602082840312156101da576101d9610161565b5b60006101e8848285016101af565b91505092915050565b61070a806102006000396000f3fe608060405234801561001057600080fd5b50600436106100575760003560e01c80632209e9911461005c578063715018a6146100785780638da5cb5b14610082578063c2252daa146100a0578063f2fde38b146100bc575b600080fd5b610076600480360381019061007191906104ae565b6100d8565b005b610080610173565b005b61008a610187565b60405161009791906104fd565b60405180910390f35b6100ba60048036038101906100b59190610518565b6101b0565b005b6100d660048036038101906100d19190610545565b610248565b005b6100e06102cb565b600160009054906101000a900473ffffffffffffffffffffffffffffffffffffffff1673ffffffffffffffffffffffffffffffffffffffff16632209e99183836040518363ffffffff1660e01b815260040161013d929190610581565b600060405180830381600087803b15801561015757600080fd5b505af115801561016b573d6000803e3d6000fd5b505050505050565b61017b6102cb565b6101856000610349565b565b60008060009054906101000a900473ffffffffffffffffffffffffffffffffffffffff16905090565b6101b86102cb565b600160009054906101000a900473ffffffffffffffffffffffffffffffffffffffff1673ffffffffffffffffffffffffffffffffffffffff1663c2252daa826040518263ffffffff1660e01b815260040161021391906105aa565b600060405180830381600087803b15801561022d57600080fd5b505af1158015610241573d6000803e3d6000fd5b5050505050565b6102506102cb565b600073ffffffffffffffffffffffffffffffffffffffff168173ffffffffffffffffffffffffffffffffffffffff16036102bf576040517f08c379a00000000000000000000000000000000000000000000000000000000081526004016102b690610648565b60405180910390fd5b6102c881610349565b50565b6102d361040d565b73ffffffffffffffffffffffffffffffffffffffff166102f1610187565b73ffffffffffffffffffffffffffffffffffffffff1614610347576040517f08c379a000000000000000000000000000000000000000000000000000000000815260040161033e906106b4565b60405180910390fd5b565b60008060009054906101000a900473ffffffffffffffffffffffffffffffffffffffff169050816000806101000a81548173ffffffffffffffffffffffffffffffffffffffff021916908373ffffffffffffffffffffffffffffffffffffffff1602179055508173ffffffffffffffffffffffffffffffffffffffff168173ffffffffffffffffffffffffffffffffffffffff167f8be0079c531659141344cd1fd0a4f28419497f9722a3daafe3b4186f6b6457e060405160405180910390a35050565b600033905090565b600080fd5b600073ffffffffffffffffffffffffffffffffffffffff82169050919050565b60006104458261041a565b9050919050565b6104558161043a565b811461046057600080fd5b50565b6000813590506104728161044c565b92915050565b6000819050919050565b61048b81610478565b811461049657600080fd5b50565b6000813590506104a881610482565b92915050565b600080604083850312156104c5576104c4610415565b5b60006104d385828601610463565b92505060206104e485828601610499565b9150509250929050565b6104f78161043a565b82525050565b600060208201905061051260008301846104ee565b92915050565b60006020828403121561052e5761052d610415565b5b600061053c84828501610499565b91505092915050565b60006020828403121561055b5761055a610415565b5b600061056984828501610463565b91505092915050565b61057b81610478565b82525050565b600060408201905061059660008301856104ee565b6105a36020830184610572565b9392505050565b60006020820190506105bf6000830184610572565b92915050565b600082825260208201905092915050565b7f4f776e61626c653a206e6577206f776e657220697320746865207a65726f206160008201527f6464726573730000000000000000000000000000000000000000000000000000602082015250565b60006106326026836105c5565b915061063d826105d6565b604082019050919050565b6000602082019050818103600083015261066181610625565b9050919050565b7f4f776e61626c653a2063616c6c6572206973206e6f7420746865206f776e6572600082015250565b600061069e6020836105c5565b91506106a982610668565b602082019050919050565b600060208201905081810360008301526106cd81610691565b905091905056fea2646970667358221220f6da46476302d32c5a1238619d7dc00358b4b30c0676e82abaa2a2016496fa1964736f6c63430008130033",
  "linkReferences": {},
  "deployedLinkReferences": {}
}