{
  "_format": "hh-sol-artifact-1",
  "contractName": "FlyFlutterCoin",
  "sourceName": "contracts/FlyFlutterCoin.sol",
  "abi": [
    {
      "inputs": [
        {
          "internalType": "address",
          "name": "_houseContract",
          "type": "address"
        }
      ],
      "stateMutability": "nonpayable",
      "type": "constructor"
    },
    {
      "inputs": [],
      "name": "AddressIsZero",
      "type": "error"
    },
    {
      "inputs": [],
      "name": "ApproveOnlyTheBettingContract",
      "type": "error"
    },
    {
      "inputs": [],
      "name": "BalanceGreaterThanTen",
      "type": "error"
    },
    {
      "inputs": [],
      "name": "TransferFromOnlyHouseContract",
      "type": "error"
    },
    {
      "inputs": [],
      "name": "TransferOnlyToHouseContract",
      "type": "error"
    },
    {
      "anonymous": false,
      "inputs": [
        {
          "indexed": true,
          "internalType": "address",
          "name": "owner",
          "type": "address"
        },
        {
          "indexed": true,
          "internalType": "address",
          "name": "spender",
          "type": "address"
        },
        {
          "indexed": false,
          "internalType": "uint256",
          "name": "value",
          "type": "uint256"
        }
      ],
      "name": "Approval",
      "type": "event"
    },
    {
      "anonymous": false,
      "inputs": [
        {
          "indexed": true,
          "internalType": "address",
          "name": "previousOwner",
          "type": "address"
        },
        {
          "indexed": true,
          "internalType": "address",
          "name": "newOwner",
          "type": "address"
        }
      ],
      "name": "OwnershipTransferred",
      "type": "event"
    },
    {
      "anonymous": false,
      "inputs": [
        {
          "indexed": true,
          "internalType": "address",
          "name": "from",
          "type": "address"
        },
        {
          "indexed": true,
          "internalType": "address",
          "name": "to",
          "type": "address"
        },
        {
          "indexed": false,
          "internalType": "uint256",
          "name": "value",
          "type": "uint256"
        }
      ],
      "name": "Transfer",
      "type": "event"
    },
    {
      "inputs": [],
      "name": "DOMAIN_SEPARATOR",
      "outputs": [
        {
          "internalType": "bytes32",
          "name": "",
          "type": "bytes32"
        }
      ],
      "stateMutability": "view",
      "type": "function"
    },
    {
      "inputs": [],
      "name": "MAX_SUPPLY",
      "outputs": [
        {
          "internalType": "uint256",
          "name": "",
          "type": "uint256"
        }
      ],
      "stateMutability": "view",
      "type": "function"
    },
    {
      "inputs": [
        {
          "internalType": "address",
          "name": "owner",
          "type": "address"
        },
        {
          "internalType": "address",
          "name": "spender",
          "type": "address"
        }
      ],
      "name": "allowance",
      "outputs": [
        {
          "internalType": "uint256",
          "name": "",
          "type": "uint256"
        }
      ],
      "stateMutability": "view",
      "type": "function"
    },
    {
      "inputs": [
        {
          "internalType": "address",
          "name": "spender",
          "type": "address"
        },
        {
          "internalType": "uint256",
          "name": "amount",
          "type": "uint256"
        }
      ],
      "name": "approve",
      "outputs": [
        {
          "internalType": "bool",
          "name": "",
          "type": "bool"
        }
      ],
      "stateMutability": "nonpayable",
      "type": "function"
    },
    {
      "inputs": [
        {
          "internalType": "address",
          "name": "account",
          "type": "address"
        }
      ],
      "name": "balanceOf",
      "outputs": [
        {
          "internalType": "uint256",
          "name": "",
          "type": "uint256"
        }
      ],
      "stateMutability": "view",
      "type": "function"
    },
    {
      "inputs": [],
      "name": "bettingContract",
      "outputs": [
        {
          "internalType": "address",
          "name": "",
          "type": "address"
        }
      ],
      "stateMutability": "view",
      "type": "function"
    },
    {
      "inputs": [],
      "name": "decimals",
      "outputs": [
        {
          "internalType": "uint8",
          "name": "",
          "type": "uint8"
        }
      ],
      "stateMutability": "pure",
      "type": "function"
    },
    {
      "inputs": [
        {
          "internalType": "address",
          "name": "spender",
          "type": "address"
        },
        {
          "internalType": "uint256",
          "name": "addedValue",
          "type": "uint256"
        }
      ],
      "name": "decreaseAllowance",
      "outputs": [
        {
          "internalType": "bool",
          "name": "",
          "type": "bool"
        }
      ],
      "stateMutability": "nonpayable",
      "type": "function"
    },
    {
      "inputs": [],
      "name": "houseContract",
      "outputs": [
        {
          "internalType": "address",
          "name": "",
          "type": "address"
        }
      ],
      "stateMutability": "view",
      "type": "function"
    },
    {
      "inputs": [
        {
          "internalType": "address",
          "name": "spender",
          "type": "address"
        },
        {
          "internalType": "uint256",
          "name": "addedValue",
          "type": "uint256"
        }
      ],
      "name": "increaseAllowance",
      "outputs": [
        {
          "internalType": "bool",
          "name": "",
          "type": "bool"
        }
      ],
      "stateMutability": "nonpayable",
      "type": "function"
    },
    {
      "inputs": [],
      "name": "maxSupply",
      "outputs": [
        {
          "internalType": "uint256",
          "name": "",
          "type": "uint256"
        }
      ],
      "stateMutability": "pure",
      "type": "function"
    },
    {
      "inputs": [],
      "name": "mint",
      "outputs": [
        {
          "internalType": "bool",
          "name": "",
          "type": "bool"
        }
      ],
      "stateMutability": "nonpayable",
      "type": "function"
    },
    {
      "inputs": [],
      "name": "name",
      "outputs": [
        {
          "internalType": "string",
          "name": "",
          "type": "string"
        }
      ],
      "stateMutability": "view",
      "type": "function"
    },
    {
      "inputs": [
        {
          "internalType": "address",
          "name": "owner",
          "type": "address"
        }
      ],
      "name": "nonces",
      "outputs": [
        {
          "internalType": "uint256",
          "name": "",
          "type": "uint256"
        }
      ],
      "stateMutability": "view",
      "type": "function"
    },
    {
      "inputs": [],
      "name": "owner",
      "outputs": [
        {
          "internalType": "address",
          "name": "",
          "type": "address"
        }
      ],
      "stateMutability": "view",
      "type": "function"
    },
    {
      "inputs": [
        {
          "internalType": "address",
          "name": "owner",
          "type": "address"
        },
        {
          "internalType": "address",
          "name": "spender",
          "type": "address"
        },
        {
          "internalType": "uint256",
          "name": "value",
          "type": "uint256"
        },
        {
          "internalType": "uint256",
          "name": "deadline",
          "type": "uint256"
        },
        {
          "internalType": "uint8",
          "name": "v",
          "type": "uint8"
        },
        {
          "internalType": "bytes32",
          "name": "r",
          "type": "bytes32"
        },
        {
          "internalType": "bytes32",
          "name": "s",
          "type": "bytes32"
        }
      ],
      "name": "permit",
      "outputs": [],
      "stateMutability": "nonpayable",
      "type": "function"
    },
    {
      "inputs": [],
      "name": "renounceOwnership",
      "outputs": [],
      "stateMutability": "nonpayable",
      "type": "function"
    },
    {
      "inputs": [
        {
          "internalType": "address",
          "name": "_bettingContract",
          "type": "address"
        }
      ],
      "name": "setBettingContract",
      "outputs": [
        {
          "internalType": "bool",
          "name": "",
          "type": "bool"
        }
      ],
      "stateMutability": "nonpayable",
      "type": "function"
    },
    {
      "inputs": [
        {
          "internalType": "address",
          "name": "_houseContract",
          "type": "address"
        }
      ],
      "name": "setHouseContract",
      "outputs": [
        {
          "internalType": "bool",
          "name": "",
          "type": "bool"
        }
      ],
      "stateMutability": "nonpayable",
      "type": "function"
    },
    {
      "inputs": [],
      "name": "symbol",
      "outputs": [
        {
          "internalType": "string",
          "name": "",
          "type": "string"
        }
      ],
      "stateMutability": "view",
      "type": "function"
    },
    {
      "inputs": [],
      "name": "totalSupply",
      "outputs": [
        {
          "internalType": "uint256",
          "name": "",
          "type": "uint256"
        }
      ],
      "stateMutability": "view",
      "type": "function"
    },
    {
      "inputs": [
        {
          "internalType": "address",
          "name": "recipient",
          "type": "address"
        },
        {
          "internalType": "uint256",
          "name": "amount",
          "type": "uint256"
        }
      ],
      "name": "transfer",
      "outputs": [
        {
          "internalType": "bool",
          "name": "",
          "type": "bool"
        }
      ],
      "stateMutability": "nonpayable",
      "type": "function"
    },
    {
      "inputs": [
        {
          "internalType": "address",
          "name": "sender",
          "type": "address"
        },
        {
          "internalType": "address",
          "name": "recipient",
          "type": "address"
        },
        {
          "internalType": "uint256",
          "name": "amount",
          "type": "uint256"
        }
      ],
      "name": "transferFrom",
      "outputs": [
        {
          "internalType": "bool",
          "name": "",
          "type": "bool"
        }
      ],
      "stateMutability": "nonpayable",
      "type": "function"
    },
    {
      "inputs": [
        {
          "internalType": "address",
          "name": "newOwner",
          "type": "address"
        }
      ],
      "name": "transferOwnership",
      "outputs": [],
      "stateMutability": "nonpayable",
      "type": "function"
    }
  ],
  "bytecode": "0x6101406040523480156200001257600080fd5b506040516200365f3803806200365f8339818101604052810190620000389190620005ba565b6040518060400160405280600e81526020017f466c79466c7574746572436f696e000000000000000000000000000000000000815250806040518060400160405280600181526020017f31000000000000000000000000000000000000000000000000000000000000008152506040518060400160405280600e81526020017f466c79466c7574746572436f696e0000000000000000000000000000000000008152506040518060400160405280600381526020017f4646430000000000000000000000000000000000000000000000000000000000815250816003908162000122919062000866565b50806004908162000134919062000866565b505050620001576200014b620002cf60201b60201c565b620002d760201b60201c565b60008280519060200120905060008280519060200120905060007f8b73c3c69bb8fe3d512ecc4cf759cc79239f7b179b0ffacaa9a75d522b39400f90508260e081815250508161010081815250504660a08181525050620001c08184846200039d60201b60201c565b608081815250503073ffffffffffffffffffffffffffffffffffffffff1660c08173ffffffffffffffffffffffffffffffffffffffff168152505080610120818152505050505050505080600073ffffffffffffffffffffffffffffffffffffffff168173ffffffffffffffffffffffffffffffffffffffff160362000272576040517f867915ab00000000000000000000000000000000000000000000000000000000815260040160405180910390fd5b81600960006101000a81548173ffffffffffffffffffffffffffffffffffffffff021916908373ffffffffffffffffffffffffffffffffffffffff160217905550620002c782612710620003d960201b60201c565b505062000af1565b600033905090565b6000600560009054906101000a900473ffffffffffffffffffffffffffffffffffffffff16905081600560006101000a81548173ffffffffffffffffffffffffffffffffffffffff021916908373ffffffffffffffffffffffffffffffffffffffff1602179055508173ffffffffffffffffffffffffffffffffffffffff168173ffffffffffffffffffffffffffffffffffffffff167f8be0079c531659141344cd1fd0a4f28419497f9722a3daafe3b4186f6b6457e060405160405180910390a35050565b60008383834630604051602001620003ba9594939291906200098a565b6040516020818303038152906040528051906020012090509392505050565b600073ffffffffffffffffffffffffffffffffffffffff168273ffffffffffffffffffffffffffffffffffffffff16036200044b576040517f08c379a0000000000000000000000000000000000000000000000000000000008152600401620004429062000a48565b60405180910390fd5b6200045f600083836200054660201b60201c565b806002600082825462000473919062000a99565b92505081905550806000808473ffffffffffffffffffffffffffffffffffffffff1673ffffffffffffffffffffffffffffffffffffffff168152602001908152602001600020600082825401925050819055508173ffffffffffffffffffffffffffffffffffffffff16600073ffffffffffffffffffffffffffffffffffffffff167fddf252ad1be2c89b69c2b068fc378daa952ba7f163c4a11628f55a4df523b3ef8360405162000526919062000ad4565b60405180910390a362000542600083836200054b60201b60201c565b5050565b505050565b505050565b600080fd5b600073ffffffffffffffffffffffffffffffffffffffff82169050919050565b6000620005828262000555565b9050919050565b620005948162000575565b8114620005a057600080fd5b50565b600081519050620005b48162000589565b92915050565b600060208284031215620005d357620005d262000550565b5b6000620005e384828501620005a3565b91505092915050565b600081519050919050565b7f4e487b7100000000000000000000000000000000000000000000000000000000600052604160045260246000fd5b7f4e487b7100000000000000000000000000000000000000000000000000000000600052602260045260246000fd5b600060028204905060018216806200066e57607f821691505b60208210810362000684576200068362000626565b5b50919050565b60008190508160005260206000209050919050565b60006020601f8301049050919050565b600082821b905092915050565b600060088302620006ee7fffffffffffffffffffffffffffffffffffffffffffffffffffffffffffffffff82620006af565b620006fa8683620006af565b95508019841693508086168417925050509392505050565b6000819050919050565b6000819050919050565b600062000747620007416200073b8462000712565b6200071c565b62000712565b9050919050565b6000819050919050565b620007638362000726565b6200077b62000772826200074e565b848454620006bc565b825550505050565b600090565b6200079262000783565b6200079f81848462000758565b505050565b5b81811015620007c757620007bb60008262000788565b600181019050620007a5565b5050565b601f8211156200081657620007e0816200068a565b620007eb846200069f565b81016020851015620007fb578190505b620008136200080a856200069f565b830182620007a4565b50505b505050565b600082821c905092915050565b60006200083b600019846008026200081b565b1980831691505092915050565b600062000856838362000828565b9150826002028217905092915050565b6200087182620005ec565b67ffffffffffffffff8111156200088d576200088c620005f7565b5b62000899825462000655565b620008a6828285620007cb565b600060209050601f831160018114620008de5760008415620008c9578287015190505b620008d5858262000848565b86555062000945565b601f198416620008ee866200068a565b60005b828110156200091857848901518255600182019150602085019450602081019050620008f1565b8683101562000938578489015162000934601f89168262000828565b8355505b6001600288020188555050505b505050505050565b6000819050919050565b62000962816200094d565b82525050565b620009738162000712565b82525050565b620009848162000575565b82525050565b600060a082019050620009a1600083018862000957565b620009b0602083018762000957565b620009bf604083018662000957565b620009ce606083018562000968565b620009dd608083018462000979565b9695505050505050565b600082825260208201905092915050565b7f45524332303a206d696e7420746f20746865207a65726f206164647265737300600082015250565b600062000a30601f83620009e7565b915062000a3d82620009f8565b602082019050919050565b6000602082019050818103600083015262000a638162000a21565b9050919050565b7f4e487b7100000000000000000000000000000000000000000000000000000000600052601160045260246000fd5b600062000aa68262000712565b915062000ab38362000712565b925082820190508082111562000ace5762000acd62000a6a565b5b92915050565b600060208201905062000aeb600083018462000968565b92915050565b60805160a05160c05160e0516101005161012051612b1e62000b4160003960006110f20152600061113401526000611113015260006110480152600061109e015260006110c70152612b1e6000f3fe608060405234801561001057600080fd5b50600436106101585760003560e01c80635c22aa69116100c3578063a457c2d71161007c578063a457c2d7146103e3578063a9059cbb14610413578063d505accf14610443578063d5abeb011461045f578063dd62ed3e1461047d578063f2fde38b146104ad57610158565b80635c22aa691461031f57806370a082311461033d578063715018a61461036d5780637ecebe00146103775780638da5cb5b146103a757806395d89b41146103c557610158565b806323b872dd1161011557806323b872dd1461023557806330fce48b14610265578063313ce5671461029557806332cb6b0c146102b35780633644e515146102d157806339509351146102ef57610158565b806306fdde031461015d578063095ea7b31461017b5780630fdc0744146101ab5780631249c58b146101db57806318160ddd146101f957806321cb483114610217575b600080fd5b6101656104c9565b6040516101729190611d20565b60405180910390f35b61019560048036038101906101909190611ddb565b61055b565b6040516101a29190611e36565b60405180910390f35b6101c560048036038101906101c09190611e51565b6105f6565b6040516101d29190611e36565b60405180910390f35b6101e36106b2565b6040516101f09190611e36565b60405180910390f35b610201610709565b60405161020e9190611e8d565b60405180910390f35b61021f610713565b60405161022c9190611eb7565b60405180910390f35b61024f600480360381019061024a9190611ed2565b610739565b60405161025c9190611e36565b60405180910390f35b61027f600480360381019061027a9190611e51565b610834565b60405161028c9190611e36565b60405180910390f35b61029d6108f0565b6040516102aa9190611f41565b60405180910390f35b6102bb6108f5565b6040516102c89190611e8d565b60405180910390f35b6102d96108fc565b6040516102e69190611f75565b60405180910390f35b61030960048036038101906103049190611ddb565b61090b565b6040516103169190611e36565b60405180910390f35b6103276109a6565b6040516103349190611eb7565b60405180910390f35b61035760048036038101906103529190611e51565b6109cc565b6040516103649190611e8d565b60405180910390f35b610375610a14565b005b610391600480360381019061038c9190611e51565b610a28565b60405161039e9190611e8d565b60405180910390f35b6103af610a78565b6040516103bc9190611eb7565b60405180910390f35b6103cd610aa2565b6040516103da9190611d20565b60405180910390f35b6103fd60048036038101906103f89190611ddb565b610b34565b60405161040a9190611e36565b60405180910390f35b61042d60048036038101906104289190611ddb565b610bcf565b60405161043a9190611e36565b60405180910390f35b61045d60048036038101906104589190611fe8565b610c6a565b005b610467610d09565b6040516104749190611e8d565b60405180910390f35b6104976004803603810190610492919061208a565b610d14565b6040516104a49190611e8d565b60405180910390f35b6104c760048036038101906104c29190611e51565b610d9b565b005b6060600380546104d8906120f9565b80601f0160208091040260200160405190810160405280929190818152602001828054610504906120f9565b80156105515780601f1061052657610100808354040283529160200191610551565b820191906000526020600020905b81548152906001019060200180831161053457829003601f168201915b5050505050905090565b6000600860009054906101000a900473ffffffffffffffffffffffffffffffffffffffff1673ffffffffffffffffffffffffffffffffffffffff168373ffffffffffffffffffffffffffffffffffffffff16146105e4576040517fffd3875f00000000000000000000000000000000000000000000000000000000815260040160405180910390fd5b6105ee8383610e1e565b905092915050565b6000610600610e41565b81600073ffffffffffffffffffffffffffffffffffffffff168173ffffffffffffffffffffffffffffffffffffffff1603610667576040517f867915ab00000000000000000000000000000000000000000000000000000000815260040160405180910390fd5b82600960006101000a81548173ffffffffffffffffffffffffffffffffffffffff021916908373ffffffffffffffffffffffffffffffffffffffff1602179055506001915050919050565b6000600a6106bf336109cc565b11156106f7576040517f42e81e7b00000000000000000000000000000000000000000000000000000000815260040160405180910390fd5b610702336064610ebf565b6001905090565b6000600254905090565b600860009054906101000a900473ffffffffffffffffffffffffffffffffffffffff1681565b6000600960009054906101000a900473ffffffffffffffffffffffffffffffffffffffff1673ffffffffffffffffffffffffffffffffffffffff168473ffffffffffffffffffffffffffffffffffffffff1614806107e45750600960009054906101000a900473ffffffffffffffffffffffffffffffffffffffff1673ffffffffffffffffffffffffffffffffffffffff168373ffffffffffffffffffffffffffffffffffffffff16145b156107fb576107f4848484611015565b905061082d565b6040517f685cb8bf00000000000000000000000000000000000000000000000000000000815260040160405180910390fd5b9392505050565b600061083e610e41565b81600073ffffffffffffffffffffffffffffffffffffffff168173ffffffffffffffffffffffffffffffffffffffff16036108a5576040517f867915ab00000000000000000000000000000000000000000000000000000000815260040160405180910390fd5b82600860006101000a81548173ffffffffffffffffffffffffffffffffffffffff021916908373ffffffffffffffffffffffffffffffffffffffff1602179055506001915050919050565b600090565b620f424081565b6000610906611044565b905090565b6000600860009054906101000a900473ffffffffffffffffffffffffffffffffffffffff1673ffffffffffffffffffffffffffffffffffffffff168373ffffffffffffffffffffffffffffffffffffffff1614610994576040517fffd3875f00000000000000000000000000000000000000000000000000000000815260040160405180910390fd5b61099e838361115e565b905092915050565b600960009054906101000a900473ffffffffffffffffffffffffffffffffffffffff1681565b60008060008373ffffffffffffffffffffffffffffffffffffffff1673ffffffffffffffffffffffffffffffffffffffff168152602001908152602001600020549050919050565b610a1c610e41565b610a266000611195565b565b6000610a71600660008473ffffffffffffffffffffffffffffffffffffffff1673ffffffffffffffffffffffffffffffffffffffff16815260200190815260200160002061125b565b9050919050565b6000600560009054906101000a900473ffffffffffffffffffffffffffffffffffffffff16905090565b606060048054610ab1906120f9565b80601f0160208091040260200160405190810160405280929190818152602001828054610add906120f9565b8015610b2a5780601f10610aff57610100808354040283529160200191610b2a565b820191906000526020600020905b815481529060010190602001808311610b0d57829003601f168201915b5050505050905090565b6000600860009054906101000a900473ffffffffffffffffffffffffffffffffffffffff1673ffffffffffffffffffffffffffffffffffffffff168373ffffffffffffffffffffffffffffffffffffffff1614610bbd576040517fffd3875f00000000000000000000000000000000000000000000000000000000815260040160405180910390fd5b610bc78383611269565b905092915050565b6000600960009054906101000a900473ffffffffffffffffffffffffffffffffffffffff1673ffffffffffffffffffffffffffffffffffffffff168373ffffffffffffffffffffffffffffffffffffffff1614610c58576040517f2f24a5b300000000000000000000000000000000000000000000000000000000815260040160405180910390fd5b610c6283836112e0565b905092915050565b600860009054906101000a900473ffffffffffffffffffffffffffffffffffffffff1673ffffffffffffffffffffffffffffffffffffffff168673ffffffffffffffffffffffffffffffffffffffff1614610cf1576040517fffd3875f00000000000000000000000000000000000000000000000000000000815260040160405180910390fd5b610d0087878787878787611303565b50505050505050565b6000620f4240905090565b6000600160008473ffffffffffffffffffffffffffffffffffffffff1673ffffffffffffffffffffffffffffffffffffffff16815260200190815260200160002060008373ffffffffffffffffffffffffffffffffffffffff1673ffffffffffffffffffffffffffffffffffffffff16815260200190815260200160002054905092915050565b610da3610e41565b600073ffffffffffffffffffffffffffffffffffffffff168173ffffffffffffffffffffffffffffffffffffffff1603610e12576040517f08c379a0000000000000000000000000000000000000000000000000000000008152600401610e099061219c565b60405180910390fd5b610e1b81611195565b50565b600080610e29611445565b9050610e3681858561144d565b600191505092915050565b610e49611445565b73ffffffffffffffffffffffffffffffffffffffff16610e67610a78565b73ffffffffffffffffffffffffffffffffffffffff1614610ebd576040517f08c379a0000000000000000000000000000000000000000000000000000000008152600401610eb490612208565b60405180910390fd5b565b600073ffffffffffffffffffffffffffffffffffffffff168273ffffffffffffffffffffffffffffffffffffffff1603610f2e576040517f08c379a0000000000000000000000000000000000000000000000000000000008152600401610f2590612274565b60405180910390fd5b610f3a60008383611616565b8060026000828254610f4c91906122c3565b92505081905550806000808473ffffffffffffffffffffffffffffffffffffffff1673ffffffffffffffffffffffffffffffffffffffff168152602001908152602001600020600082825401925050819055508173ffffffffffffffffffffffffffffffffffffffff16600073ffffffffffffffffffffffffffffffffffffffff167fddf252ad1be2c89b69c2b068fc378daa952ba7f163c4a11628f55a4df523b3ef83604051610ffd9190611e8d565b60405180910390a36110116000838361161b565b5050565b600080611020611445565b905061102d858285611620565b6110388585856116ac565b60019150509392505050565b60007f000000000000000000000000000000000000000000000000000000000000000073ffffffffffffffffffffffffffffffffffffffff163073ffffffffffffffffffffffffffffffffffffffff161480156110c057507f000000000000000000000000000000000000000000000000000000000000000046145b156110ed577f0000000000000000000000000000000000000000000000000000000000000000905061115b565b6111587f00000000000000000000000000000000000000000000000000000000000000007f00000000000000000000000000000000000000000000000000000000000000007f0000000000000000000000000000000000000000000000000000000000000000611922565b90505b90565b600080611169611445565b905061118a81858561117b8589610d14565b61118591906122c3565b61144d565b600191505092915050565b6000600560009054906101000a900473ffffffffffffffffffffffffffffffffffffffff16905081600560006101000a81548173ffffffffffffffffffffffffffffffffffffffff021916908373ffffffffffffffffffffffffffffffffffffffff1602179055508173ffffffffffffffffffffffffffffffffffffffff168173ffffffffffffffffffffffffffffffffffffffff167f8be0079c531659141344cd1fd0a4f28419497f9722a3daafe3b4186f6b6457e060405160405180910390a35050565b600081600001549050919050565b600080611274611445565b905060006112828286610d14565b9050838110156112c7576040517f08c379a00000000000000000000000000000000000000000000000000000000081526004016112be90612369565b60405180910390fd5b6112d4828686840361144d565b60019250505092915050565b6000806112eb611445565b90506112f88185856116ac565b600191505092915050565b83421115611346576040517f08c379a000000000000000000000000000000000000000000000000000000000815260040161133d906123d5565b60405180910390fd5b60007f6e71edae12b1b97f4d1f60370fef10105fa2faae0126114a169c64845d6126c98888886113758c61195c565b8960405160200161138b969594939291906123f5565b60405160208183030381529060405280519060200120905060006113ae826119ba565b905060006113be828787876119d4565b90508973ffffffffffffffffffffffffffffffffffffffff168173ffffffffffffffffffffffffffffffffffffffff161461142e576040517f08c379a0000000000000000000000000000000000000000000000000000000008152600401611425906124a2565b60405180910390fd5b6114398a8a8a61144d565b50505050505050505050565b600033905090565b600073ffffffffffffffffffffffffffffffffffffffff168373ffffffffffffffffffffffffffffffffffffffff16036114bc576040517f08c379a00000000000000000000000000000000000000000000000000000000081526004016114b390612534565b60405180910390fd5b600073ffffffffffffffffffffffffffffffffffffffff168273ffffffffffffffffffffffffffffffffffffffff160361152b576040517f08c379a0000000000000000000000000000000000000000000000000000000008152600401611522906125c6565b60405180910390fd5b80600160008573ffffffffffffffffffffffffffffffffffffffff1673ffffffffffffffffffffffffffffffffffffffff16815260200190815260200160002060008473ffffffffffffffffffffffffffffffffffffffff1673ffffffffffffffffffffffffffffffffffffffff168152602001908152602001600020819055508173ffffffffffffffffffffffffffffffffffffffff168373ffffffffffffffffffffffffffffffffffffffff167f8c5be1e5ebec7d5bd14f71427d1e84f3dd0314c0f7b2291e5b200ac8c7c3b925836040516116099190611e8d565b60405180910390a3505050565b505050565b505050565b600061162c8484610d14565b90507fffffffffffffffffffffffffffffffffffffffffffffffffffffffffffffffff81146116a65781811015611698576040517f08c379a000000000000000000000000000000000000000000000000000000000815260040161168f90612632565b60405180910390fd5b6116a5848484840361144d565b5b50505050565b600073ffffffffffffffffffffffffffffffffffffffff168373ffffffffffffffffffffffffffffffffffffffff160361171b576040517f08c379a0000000000000000000000000000000000000000000000000000000008152600401611712906126c4565b60405180910390fd5b600073ffffffffffffffffffffffffffffffffffffffff168273ffffffffffffffffffffffffffffffffffffffff160361178a576040517f08c379a000000000000000000000000000000000000000000000000000000000815260040161178190612756565b60405180910390fd5b611795838383611616565b60008060008573ffffffffffffffffffffffffffffffffffffffff1673ffffffffffffffffffffffffffffffffffffffff1681526020019081526020016000205490508181101561181b576040517f08c379a0000000000000000000000000000000000000000000000000000000008152600401611812906127e8565b60405180910390fd5b8181036000808673ffffffffffffffffffffffffffffffffffffffff1673ffffffffffffffffffffffffffffffffffffffff16815260200190815260200160002081905550816000808573ffffffffffffffffffffffffffffffffffffffff1673ffffffffffffffffffffffffffffffffffffffff168152602001908152602001600020600082825401925050819055508273ffffffffffffffffffffffffffffffffffffffff168473ffffffffffffffffffffffffffffffffffffffff167fddf252ad1be2c89b69c2b068fc378daa952ba7f163c4a11628f55a4df523b3ef846040516119099190611e8d565b60405180910390a361191c84848461161b565b50505050565b6000838383463060405160200161193d959493929190612808565b6040516020818303038152906040528051906020012090509392505050565b600080600660008473ffffffffffffffffffffffffffffffffffffffff1673ffffffffffffffffffffffffffffffffffffffff16815260200190815260200160002090506119a98161125b565b91506119b4816119ff565b50919050565b60006119cd6119c7611044565b83611a15565b9050919050565b60008060006119e587878787611a48565b915091506119f281611b2a565b8192505050949350505050565b6001816000016000828254019250508190555050565b60008282604051602001611a2a9291906128d3565b60405160208183030381529060405280519060200120905092915050565b6000807f7fffffffffffffffffffffffffffffff5d576e7357a4501ddfe92f46681b20a08360001c1115611a83576000600391509150611b21565b600060018787878760405160008152602001604052604051611aa8949392919061290a565b6020604051602081039080840390855afa158015611aca573d6000803e3d6000fd5b505050602060405103519050600073ffffffffffffffffffffffffffffffffffffffff168173ffffffffffffffffffffffffffffffffffffffff1603611b1857600060019250925050611b21565b80600092509250505b94509492505050565b60006004811115611b3e57611b3d61294f565b5b816004811115611b5157611b5061294f565b5b0315611c8d5760016004811115611b6b57611b6a61294f565b5b816004811115611b7e57611b7d61294f565b5b03611bbe576040517f08c379a0000000000000000000000000000000000000000000000000000000008152600401611bb5906129ca565b60405180910390fd5b60026004811115611bd257611bd161294f565b5b816004811115611be557611be461294f565b5b03611c25576040517f08c379a0000000000000000000000000000000000000000000000000000000008152600401611c1c90612a36565b60405180910390fd5b60036004811115611c3957611c3861294f565b5b816004811115611c4c57611c4b61294f565b5b03611c8c576040517f08c379a0000000000000000000000000000000000000000000000000000000008152600401611c8390612ac8565b60405180910390fd5b5b50565b600081519050919050565b600082825260208201905092915050565b60005b83811015611cca578082015181840152602081019050611caf565b60008484015250505050565b6000601f19601f8301169050919050565b6000611cf282611c90565b611cfc8185611c9b565b9350611d0c818560208601611cac565b611d1581611cd6565b840191505092915050565b60006020820190508181036000830152611d3a8184611ce7565b905092915050565b600080fd5b600073ffffffffffffffffffffffffffffffffffffffff82169050919050565b6000611d7282611d47565b9050919050565b611d8281611d67565b8114611d8d57600080fd5b50565b600081359050611d9f81611d79565b92915050565b6000819050919050565b611db881611da5565b8114611dc357600080fd5b50565b600081359050611dd581611daf565b92915050565b60008060408385031215611df257611df1611d42565b5b6000611e0085828601611d90565b9250506020611e1185828601611dc6565b9150509250929050565b60008115159050919050565b611e3081611e1b565b82525050565b6000602082019050611e4b6000830184611e27565b92915050565b600060208284031215611e6757611e66611d42565b5b6000611e7584828501611d90565b91505092915050565b611e8781611da5565b82525050565b6000602082019050611ea26000830184611e7e565b92915050565b611eb181611d67565b82525050565b6000602082019050611ecc6000830184611ea8565b92915050565b600080600060608486031215611eeb57611eea611d42565b5b6000611ef986828701611d90565b9350506020611f0a86828701611d90565b9250506040611f1b86828701611dc6565b9150509250925092565b600060ff82169050919050565b611f3b81611f25565b82525050565b6000602082019050611f566000830184611f32565b92915050565b6000819050919050565b611f6f81611f5c565b82525050565b6000602082019050611f8a6000830184611f66565b92915050565b611f9981611f25565b8114611fa457600080fd5b50565b600081359050611fb681611f90565b92915050565b611fc581611f5c565b8114611fd057600080fd5b50565b600081359050611fe281611fbc565b92915050565b600080600080600080600060e0888a03121561200757612006611d42565b5b60006120158a828b01611d90565b97505060206120268a828b01611d90565b96505060406120378a828b01611dc6565b95505060606120488a828b01611dc6565b94505060806120598a828b01611fa7565b93505060a061206a8a828b01611fd3565b92505060c061207b8a828b01611fd3565b91505092959891949750929550565b600080604083850312156120a1576120a0611d42565b5b60006120af85828601611d90565b92505060206120c085828601611d90565b9150509250929050565b7f4e487b7100000000000000000000000000000000000000000000000000000000600052602260045260246000fd5b6000600282049050600182168061211157607f821691505b602082108103612124576121236120ca565b5b50919050565b7f4f776e61626c653a206e6577206f776e657220697320746865207a65726f206160008201527f6464726573730000000000000000000000000000000000000000000000000000602082015250565b6000612186602683611c9b565b91506121918261212a565b604082019050919050565b600060208201905081810360008301526121b581612179565b9050919050565b7f4f776e61626c653a2063616c6c6572206973206e6f7420746865206f776e6572600082015250565b60006121f2602083611c9b565b91506121fd826121bc565b602082019050919050565b60006020820190508181036000830152612221816121e5565b9050919050565b7f45524332303a206d696e7420746f20746865207a65726f206164647265737300600082015250565b600061225e601f83611c9b565b915061226982612228565b602082019050919050565b6000602082019050818103600083015261228d81612251565b9050919050565b7f4e487b7100000000000000000000000000000000000000000000000000000000600052601160045260246000fd5b60006122ce82611da5565b91506122d983611da5565b92508282019050808211156122f1576122f0612294565b5b92915050565b7f45524332303a2064656372656173656420616c6c6f77616e63652062656c6f7760008201527f207a65726f000000000000000000000000000000000000000000000000000000602082015250565b6000612353602583611c9b565b915061235e826122f7565b604082019050919050565b6000602082019050818103600083015261238281612346565b9050919050565b7f45524332305065726d69743a206578706972656420646561646c696e65000000600082015250565b60006123bf601d83611c9b565b91506123ca82612389565b602082019050919050565b600060208201905081810360008301526123ee816123b2565b9050919050565b600060c08201905061240a6000830189611f66565b6124176020830188611ea8565b6124246040830187611ea8565b6124316060830186611e7e565b61243e6080830185611e7e565b61244b60a0830184611e7e565b979650505050505050565b7f45524332305065726d69743a20696e76616c6964207369676e61747572650000600082015250565b600061248c601e83611c9b565b915061249782612456565b602082019050919050565b600060208201905081810360008301526124bb8161247f565b9050919050565b7f45524332303a20617070726f76652066726f6d20746865207a65726f2061646460008201527f7265737300000000000000000000000000000000000000000000000000000000602082015250565b600061251e602483611c9b565b9150612529826124c2565b604082019050919050565b6000602082019050818103600083015261254d81612511565b9050919050565b7f45524332303a20617070726f766520746f20746865207a65726f20616464726560008201527f7373000000000000000000000000000000000000000000000000000000000000602082015250565b60006125b0602283611c9b565b91506125bb82612554565b604082019050919050565b600060208201905081810360008301526125df816125a3565b9050919050565b7f45524332303a20696e73756666696369656e7420616c6c6f77616e6365000000600082015250565b600061261c601d83611c9b565b9150612627826125e6565b602082019050919050565b6000602082019050818103600083015261264b8161260f565b9050919050565b7f45524332303a207472616e736665722066726f6d20746865207a65726f20616460008201527f6472657373000000000000000000000000000000000000000000000000000000602082015250565b60006126ae602583611c9b565b91506126b982612652565b604082019050919050565b600060208201905081810360008301526126dd816126a1565b9050919050565b7f45524332303a207472616e7366657220746f20746865207a65726f206164647260008201527f6573730000000000000000000000000000000000000000000000000000000000602082015250565b6000612740602383611c9b565b915061274b826126e4565b604082019050919050565b6000602082019050818103600083015261276f81612733565b9050919050565b7f45524332303a207472616e7366657220616d6f756e742065786365656473206260008201527f616c616e63650000000000000000000000000000000000000000000000000000602082015250565b60006127d2602683611c9b565b91506127dd82612776565b604082019050919050565b60006020820190508181036000830152612801816127c5565b9050919050565b600060a08201905061281d6000830188611f66565b61282a6020830187611f66565b6128376040830186611f66565b6128446060830185611e7e565b6128516080830184611ea8565b9695505050505050565b600081905092915050565b7f1901000000000000000000000000000000000000000000000000000000000000600082015250565b600061289c60028361285b565b91506128a782612866565b600282019050919050565b6000819050919050565b6128cd6128c882611f5c565b6128b2565b82525050565b60006128de8261288f565b91506128ea82856128bc565b6020820191506128fa82846128bc565b6020820191508190509392505050565b600060808201905061291f6000830187611f66565b61292c6020830186611f32565b6129396040830185611f66565b6129466060830184611f66565b95945050505050565b7f4e487b7100000000000000000000000000000000000000000000000000000000600052602160045260246000fd5b7f45434453413a20696e76616c6964207369676e61747572650000000000000000600082015250565b60006129b4601883611c9b565b91506129bf8261297e565b602082019050919050565b600060208201905081810360008301526129e3816129a7565b9050919050565b7f45434453413a20696e76616c6964207369676e6174757265206c656e67746800600082015250565b6000612a20601f83611c9b565b9150612a2b826129ea565b602082019050919050565b60006020820190508181036000830152612a4f81612a13565b9050919050565b7f45434453413a20696e76616c6964207369676e6174757265202773272076616c60008201527f7565000000000000000000000000000000000000000000000000000000000000602082015250565b6000612ab2602283611c9b565b9150612abd82612a56565b604082019050919050565b60006020820190508181036000830152612ae181612aa5565b905091905056fea2646970667358221220324bbc2affb1d0568d0744fd962f7eb4b3575484279e6eb6999c576376d3f91564736f6c63430008130033",
  "linkReferences": {},
  "deployedLinkReferences": {}
}